:020000040800F2
:1000000090060020CD010008D50600083106000842
:10001000D1060008D5020008AD0D00080000000060
:10002000000000000000000000000000B10800080F
:10003000FB03000800000000A5070008C509000830
:10004000E7010008E7010008E7010008E7010008F0
:10005000E7010008E7010008E7010008E7010008E0
:10006000E7010008E7010008E7010008E7010008D0
:10007000E7010008E7010008E7010008E7010008C0
:10008000E7010008E7010008E7010008E7010008B0
:10009000E7010008E7010008E7010008E7010008A0
:1000A000E7010008E7010008E7010008E701000890
:1000B000E7010008E7010008E7010008E701000880
:1000C000E7010008E7010008E7010008E701000870
:1000D000E7010008A10A0008E7010008E70100089D
:1000E000E7010008E7010008E7010008E701000850
:1000F000E7010008E7010008E7010008E701000840
:10010000E7010008E7010008E7010008E70100082F
:10011000E7010008E7010008E7010008E70100081F
:10012000E7010008E7010008E7010008E70100080F
:1001300000F002F800F03AF80AA090E8000C8244BF
:100140008344AAF10107DA4501D100F02FF8AFF29C
:10015000090EBAE80F0013F0010F18BFFB1A43F0A5
:10016000010318470011000020110000103A24BFBD
:1001700078C878C1FAD8520724BF30C830C144BF0C
:1001800004680C607047000000230024002500264E
:10019000103A28BF78C1FBD8520728BF30C148BFEA
:1001A0000B6070471FB51FBD10B510BD00F031F8D2
:1001B0001146FFF7F7FF00F095FE00F04FF803B48B
:1001C000FFF7F2FF03BC00F053F800000948804736
:1001D00009480047FEE7FEE7FEE7FEE7FEE7FEE729
:1001E000FEE7FEE7FEE7FEE704480549054A064B41
:1001F00070470000050A0008310100089000002047
:100200009006002090020020900200207047704766
:100210007047754600F028F8AE460500694653461B
:1002200020F00700854618B020B5FFF7DDFFBDE8D8
:1002300020404FF000064FF000074FF000084FF04D
:10024000000B21F00701AC46ACE8C009ACE8C009DE
:10025000ACE8C009ACE8C0098D4670470446AFF36E
:1002600000802046FFF7ABFF004870472C000020BD
:1002700001491820ABBEFEE72600020070470000CF
:1002800013484078FF2822D11148807910494880CE
:10029000084640884FF6FF7101EA00200C4948806B
:1002A00008464088C9790843094948800846007AC9
:1002B0008880084680884FF6FF7101EA00200449D3
:1002C000888008468088497A0843014988807047B9
:1002D0002000002000BFFEE72DE9F04782460C46D3
:1002E00015461E46DDE90989089FAA2000F0BAFBE1
:1002F000712000F0B7FB504600F0B4FB201200F074
:10030000B1FBE0B200F0AEFB281200F0ABFBE8B2AC
:1003100000F0A8FB301200F0A5FBF0B200F0A2FB49
:10032000381200F09FFBF8B200F09CFB4FEA282047
:1003300000F098FB08F0FF0000F094FB4FEA292042
:1003400000F090FB09F0FF0000F08CFB00F09AFB3E
:10035000BDE8F0872DE9F05F83460C4615461E4642
:10036000DDE90B890A9FAA2000F07CFB982000F0B1
:1003700079FB381200F076FBF8B200F073FB4FEA1D
:10038000282000F06FFB08F0FF0000F06BFB00205E
:1003900000F068FB812000F065FB304600F062FB56
:1003A000584600F05FFB204600F05CFB002000F0A8
:1003B00059FB002000F056FB4FF0000A09E099F8C5
:1003C000000000F04FFB09F101090AF1010000F003
:1003D000FF0AAA45F3DB00F055FBBDE8F09F10B51E
:1003E0000446AA2000F03EFB702000F03BFB2046B4
:1003F00000F038FB00F046FB10BD704708B5012146
:100400001E4800F0CDF84FF48050ADF800000320F6
:100410008DF8020010208DF803006946184800F09E
:1004200033F84FF480501649103108600011ADF8D0
:10043000000003208DF8020010208DF803006946AB
:10044000104800F021F84FF48060ADF8000004205F
:100450008DF8030069460B4800F016F84FF4007061
:10046000ADF8000003208DF8020018208DF803007D
:100470006946044800F008F808BD0000000230009A
:10048000000C0140000801402DE9F0410246002522
:100490000026002000230024002791F803C00CF060
:1004A0000F0591F803C00CF0100CBCF1000F03D045
:1004B00091F802C04CEA050591F800C0BCF1000FAC
:1004C00031D0146800202BE04FF0010C0CFA00F33F
:1004D000B1F800C00CEA03069E4220D183004FF021
:1004E0000F0C0CFA03F7BC4305FA03FC4CEA0404B6
:1004F00091F803C0BCF1280F06D14FF0010C0CFAA3
:1005000000FCC2F814C00AE091F803C0BCF1480F27
:1005100005D14FF0010C0CFA00FCC2F810C0401CD1
:100520000828D1D31460B1F800C0BCF1FF0F34DD4E
:10053000546800202EE000F1080C4FF0010808FA82
:100540000CF3B1F800C00CEA03069E4221D18300EF
:100550004FF00F0C0CFA03F7BC4305FA03FC4CEA0E
:10056000040491F803C0BCF1280F05D100F1080C78
:1005700008FA0CF8C2F8148091F803C0BCF1480FD7
:1005800007D100F1080C4FF0010808FA0CF8C2F886
:100590001080401C0828CED35460BDE8F0810000D4
:1005A000F0B50A46002300240021002500F0004693
:1005B000B6F1004F02D11D4EF16901E01B4E71688A
:1005C000C0F3034583B200F44016B6F5401F08D1CE
:1005D00021F07061154E766826F07066134F7E60CC
:1005E00012E000F48016B6F5801F06D1032606FA45
:1005F00005F4A14341F0706106E0460D360103FAAF
:1006000006F6B14341F0706122B1460D360103FA9E
:1006100006F6314300F00046B6F1004F02D1034E1A
:10062000F16101E0014E7160F0BD00000000014089
:1006300000BFFEE72DE9F04104460A4600200023F2
:100640003EE0990032F821801FFA88F601F1010896
:100650001FFA88F132F821801FFA88F501F10108AC
:100660001FFA88F132F821801FFA88FC01F1010895
:100670001FFA88F132F821801FFA88F7DFF84C80E2
:10068000B8F80280B04517DBDFF84080B8F8028088
:10069000A84511DCDFF83480B8F80480E0450BDBB6
:1006A000DFF82880B8F80480B84505DC184600F16A
:1006B000010808F0FF0005E003F1010808F0FF035E
:1006C000A342BEDB00BFBDE8F08100002000002097
:1006D00000BFFEE7704708B500214FF0006000F052
:1006E00057F84FF4A06000F049F825208DF800007D
:1006F00001208DF8010000208DF8020001208DF806
:100700000300684600F002F808BD000070B5002143
:1007100000230F22C47804B3154C246804F4E06469
:10072000C4F5E064210AC1F10403CA40447804FA24
:1007300003F184781440214309010E4C0678A15539
:10074000047804F01F050124AC4005786D11AD005C
:1007500005F1E025C5F8004109E0047804F01F0523
:100760000124AC40044D0678761145F8264070BD52
:100770000CED00E000E400E080E100E0024901430C
:10078000024A1160704700000000FA050CED00E01D
:10079000024A0A400243024B1A60704780FFFF1F63
:1007A00008ED00E07047000029B1064A9269024353
:1007B000044B9A6104E0034A92698243014B9A61B7
:1007C000704700000010024010B501217D20FFF7A6
:1007D000EBFF01218803FFF7E7FF10BD30B50021D3
:1007E0000022002400232D4D6D6805F00C0121B17D
:1007F000042905D0082923D105E0294D056022E010
:10080000274D05601FE0254D6D6805F47012234DDE
:100810006D6805F48034022505EB92421CB9214D28
:10082000554305600BE01D4D6D6805F400351DB1A5
:100830001C4D5543056002E0194D5543056002E02B
:10084000174D056000BF00BF144D6D6805F0F00145
:100850000909154D6B5C0568DD4045600F4D6D68FD
:1008600005F4E061090A104D6B5C4568DD40856068
:100870000A4D6D6805F46051C90A0B4D6B5C456803
:10088000DD40C560054D6D6805F44041890B074D9D
:100890006B5CC568B5FBF3F5056130BD0010024027
:1008A00000127A0000093D00000000201000002026
:1008B000704710B500F002F810BD00000CB5002024
:1008C000019000903348006840F48030314908605E
:1008D00000BF3048006800F4003000900198401CD0
:1008E0000190009818B90198B0F5A06FF1D129488E
:1008F000006800F4003010B10120009001E00020F9
:1009000000900098012843D12348006840F010006F
:10091000214908600846006820F003000860084686
:10092000006840F0020008601A48406819494860B1
:100930000846406848600846406840F48060486067
:100940000846406820F47C1048600846406840F43F
:10095000E81048600846006840F08070086000BFFA
:100960000C48006800F000700028F9D00948406881
:1009700020F00300074948600846406840F0020044
:10098000486000BF0348406800F00C000828F9D117
:100990000CBD00000010024000200240042808D1D5
:1009A0004FF0E021096941F004014FF0E0221161AC
:1009B00007E04FF0E021096921F004014FF0E02247
:1009C0001161704702480068401C01490860704787
:1009D0001800002010B50420FFF7E0FF08484FF092
:1009E000E0214861002088610846006940F002006B
:1009F00008610846006940F00100086110BD000070
:100A00003F19010010B51348006840F0010011497A
:100A1000086008464068104908400E49486008468A
:100A200000680E4908400B4908600846006820F439
:100A3000802008600846406820F4FE0048604FF4BB
:100A40001F008860FFF735FF4FF000600449086021
:100A500010BD0000001002400000FFF8FFFFF6FE8E
:100A600008ED00E010B5044600BF8021044800F006
:100A7000A3F80028F9D02146014800F06AF910BD1A
:100A80000038014010B5CC20FFF7ECFF3320FFF712
:100A9000E9FFC320FFF7E6FF3C20FFF7E3FF10BDAF
:100AA00010B540F225513B4800F093F800286FD074
:100AB000384800F049F9C4B2374800780B285FD2B3
:100AC000DFE800F05E5A544E483E373029120600E7
:100AD000AA2C05D130480078401E2F49087002E04A
:100AE0000A202D49087052E0722C05D0732C0BD1CE
:100AF000FF202A49087007E00020284908700846AE
:100B000000782549487000BF00BF23480078401E88
:100B1000214908703BE0204884710078401E1E493E
:100B2000087034E01C48C4710078401E1A490870EF
:100B30002DE0194804720078401E1749087026E01D
:100B4000154844720078401E134908701348007815
:100B500048701CE010480078401E0F49087016E0ED
:100B60000D480078401E0C49087010E00A480078D3
:100B7000401E094908700AE00A200749087006E08B
:100B80000A200549087000200449087000BF00BF12
:100B900010BD000000380140200000201C00002093
:100BA00021B1828942F40052828104E082894DF6AB
:100BB000FF731A408281704702460020B1F5007F22
:100BC00000D100BF13880B400BB1012000E00020D2
:100BD000704770B50246002400230025002040F62F
:100BE0006A16B14200D100BFC1F3421501F01F03E4
:100BF000012606FA03F3012D02D19689334006E05F
:100C0000022D02D1168A334001E0968A33400C123D
:100C1000012606FA04F41688344013B10CB1012001
:100C200000E0002070BDF0B503460024002600253A
:100C3000002040F66A17B94200D100BF1846C1F340
:100C4000421401F01F06012707FA06F5012C01D115
:100C50000C3004E0022C01D1103000E014301AB145
:100C600007682F43076002E00768AF430760F0BDE5
:100C70002DE9F04786B005460E460024A24600BF87
:100C8000A1460027B08900B100BF2F462C8A4CF640
:100C9000FF700440F08804432C82AC894EF6F310B8
:100CA0000440B08831890843718908430443AC810A
:100CB000AC8A4FF6FF400440B0890443AC8201A8DF
:100CC000FFF78CFD1F48874202D1DDF810A001E03C
:100CD000DDF80CA0A88900F4004040B10AEBCA007E
:100CE00000EB0A1031684900B0FBF1F807E00AEBAD
:100CF000CA0000EB0A1031688900B0FBF1F86420EB
:100D0000B8FBF0F004012009642101FB1089A889D7
:100D100000F4004040B1322000EBC900B0FBF1F01C
:100D200000F00700044308E0322000EB09106421C2
:100D3000B0FBF1F000F00F0004432C8106B0BDE8D9
:100D4000F08700000038014001468888C0F30800A1
:100D50007047C1F308028280704700001FB5002071
:100D6000ADF80400ADF80600ADF80800ADF80C00D1
:100D70000C20ADF80A004FF4E130009069460A48B3
:100D8000FFF776FF012240F225510748FFF74BFF9E
:100D9000002240F227710448FFF745FF0121024875
:100DA000FFF7FEFE1FBD00000038014000BFFEE758
:100DB00010B54FF4805005490860502000F008F845
:100DC0004FF480500149091F086010BD140C014008
:100DD000054A116800BF044A1268521A824200D3C1
:100DE00000E0F8E700BF70471800002070B5054626
:100DF0000C46062D1FD12078012810D160780728D5
:100E00000DD1A07801280AD1E078022807D12079F5
:100E1000012804D16079022801D1002070BD002092
:100E200020706070A070E07020716071002528460D
:100E300000F00EF80AE0002020706070A070E070F2
:100E4000207160710025284600F002F80120E5E7D6
:100E50002DE9FE43044640F2DE364FF4B9774FF0F9
:100E600019084FF4AF7040F20A314FF4DA724FF4C0
:100E70008663CDE90021029002462620FFF72CFA76
:100E8000002C14DD062C12DC00250EE009A0052341
:100E90000122FF21CDE9006702900846FFF75AFAC8
:100EA000A6EB080086B2681CC5B2A542EEDBBDE821
:100EB000FE8300002A00000010E00120FFF788FFF9
:100EC0000748007810B1012806D102E000F022F9AD
:100ED00003E000F027F800E000BF00BFEDE70000EE
:100EE00014000020FFF78EFDFFF76EFCFFF7F3FB09
:100EF000FFF784FAFFF76EFDFFF730FF4FF48070C5
:100F0000064908604FF47A70FFF762FF0020044939
:100F1000087001E0FFF7D0FFFCE700001408014073
:100F20001400002030B585B02620FFF758FA0020C5
:100F30008DF80C008DF80D008DF80E008DF80F0067
:100F40008DF810008DF8110000246EA0DC216422C1
:100F50000523CDE9002102900422FF210846FFF776
:100F6000F9F900BF0120FFF733FF684840780028F7
:100F70007AD0FFF785F966490E20FFF75BFB05463F
:100F80000F2D15D2DFE805F0B60815222F3C495683
:100F900063717E8B9FA2AF00062C09DAFFF708FF72
:100FA000012003A90855601CC4B22046FFF750FF7A
:100FB000A0E0062C09DAFFF7FBFE022003A9085582
:100FC000601CC4B22046FFF743FF93E0062C09DA09
:100FD000FFF7EEFE032003A90855601CC4B22046AB
:100FE000FFF736FF86E0062C09DAFFF7E1FE042062
:100FF00003A90855601CC4B22046FFF729FF79E019
:10100000062C09DAFFF7D4FE052003A90855601C59
:10101000C4B22046FFF71CFF6CE0062C09DAFFF78C
:10102000C7FE062003A90855601CC4B22046FFF77E
:101030000FFF5FE0062C09DAFFF7BAFE072003A9CD
:101040000855601CC4B22046FFF702FF52E0062C90
:1010500009DAFFF7ADFE082003A90855601CC4B2E9
:101060002046FFF7F5FE45E048E0062C09DAFFF7D9
:101070009FFE092003A90855601CC4B22046FFF753
:10108000E7FE37E0062C09DAFFF792FE002003A9FD
:101090000855601CC4B22046FFF7DAFE2AE0FFF7CD
:1010A00087FE00208DF80C008DF80D008DF80E00E5
:1010B0008DF80F008DF810008DF8110000242046E7
:1010C000FFF7C6FE16E0FFF773FE18E0FFF770FEAD
:1010D000002003A90855002C01DD601EC4B2204683
:1010E000FFF7B6FE06E0FFF763FE03A92046FFF711
:1010F0007DFE04E000BF00200449487032E700BFD5
:1011000005B030BD56312E30000000002000002018
:101110008411000810B51820FFF761F900BF012005
:10112000FFF756FE0F484078C8B1FFF7A9F80E49FF
:101130000120FFF77FFA0446012C04D0022C05D0D1
:10114000032C0AD108E0FFF733FE07E0FFF730FE7B
:1011500000200449487003E000E000BF00BFDEE764
:1011600000BF10BD20000020701100080100000029
:1011700000000000640000000000000064000000A7
:101180000E000000BC0200000F030000DF010000A1
:1011900033020000270300007A030000DF01000093
:1011A0003302000092030000E5030000DF010000AD
:1011B00033020000FD03000050040000DF010000C6
:1011C0003302000068040000BB040000DF010000DF
:1011D00033020000BC0200000F03000056020000B2
:1011E000AA020000270300007A0300005602000054
:1011F000AA02000092030000E5030000560200006E
:10120000AA020000FD030000500400005602000086
:10121000AA02000068040000BB040000560200009F
:10122000AA0200000A030000300400005E01000072
:10123000B4010000230300009B030000C60200006D
:101240000B0300003E0400005E0400007901000072
:1012500099010000E30300005B040000C6020000E7
:101260000B03000084120008000000202000000092
:101270006C010008A4120008200000207006000085
:1012800088010008000000000102030401020304B9
:10129000060708090204060800000000000000001C
:0412A000000000004A
:0400000508000131BD
:00000001FF
