:020000040800F2
:1000000090060020CD010008C1040008B9040008D2
:10001000BD0400087F020008590B00080000000022
:100020000000000000000000000000009D06000825
:10003000830200080000000091050008B1070008D5
:10004000E7010008E7010008E7010008E7010008F0
:10005000E7010008E7010008E7010008E7010008E0
:10006000E7010008E7010008E7010008E7010008D0
:10007000E7010008E7010008E7010008E7010008C0
:10008000E7010008E7010008E7010008E7010008B0
:10009000E7010008E7010008E7010008E7010008A0
:1000A000E7010008E7010008E7010008E701000890
:1000B000E7010008E7010008E7010008E701000880
:1000C000E7010008E7010008E7010008E701000870
:1000D000E701000851080008E7010008E7010008EF
:1000E000E7010008E7010008E7010008E701000850
:1000F000E7010008E7010008E7010008E701000840
:10010000E7010008E7010008E7010008E70100082F
:10011000E7010008E7010008E7010008E70100081F
:10012000E7010008E7010008E7010008E70100080F
:1001300000F002F800F03AF80AA090E8000C8244BF
:100140008344AAF10107DA4501D100F02FF8AFF29C
:10015000090EBAE80F0013F0010F18BFFB1A43F0A5
:10016000010318470C0B00002C0B0000103A24BFB1
:1001700078C878C1FAD8520724BF30C830C144BF0C
:1001800004680C607047000000230024002500264E
:10019000103A28BF78C1FBD8520728BF30C148BFEA
:1001A0000B6070471FB51FBD10B510BD00F031F8D2
:1001B0001146FFF7F7FF00F015FD00F04FF803B40C
:1001C000FFF7F2FF03BC00F053F800000948804736
:1001D00009480047FEE7FEE7FEE7FEE7FEE7FEE729
:1001E000FEE7FEE7FEE7FEE704480549054A064B41
:1001F00070470000F107000831010008900000205E
:100200009006002090020020900200207047704766
:100210007047754600F028F8AE460500694653461B
:1002200020F00700854618B020B5FFF7DDFFBDE8D8
:1002300020404FF000064FF000074FF000084FF04D
:10024000000B21F00701AC46ACE8C009ACE8C009DE
:10025000ACE8C009ACE8C0098D4670470446AFF36E
:1002600000802046FFF7ABFF004870472C000020BD
:1002700001491820ABBEFEE726000200704700BF10
:10028000FEE7704708B501211E4800F0CDF84FF495
:100290008050ADF8000003208DF8020010208DF88A
:1002A00003006946184800F033F84FF480501649AF
:1002B000103108600011ADF8000003208DF8020035
:1002C00010208DF803006946104800F021F84FF423
:1002D0008060ADF8000004208DF8030069460B48EB
:1002E00000F016F84FF40070ADF8000003208DF810
:1002F000020018208DF803006946044800F008F851
:1003000008BD000000023000000C01400008014060
:100310002DE9F0410246002500260020002300249C
:10032000002791F803C00CF00F0591F803C00CF002
:10033000100CBCF1000F03D091F802C04CEA050587
:1003400091F800C0BCF1000F31D0146800202BE000
:100350004FF0010C0CFA00F3B1F800C00CEA0306F0
:100360009E4220D183004FF00F0C0CFA03F7BC43E0
:1003700005FA03FC4CEA040491F803C0BCF1280F11
:1003800006D14FF0010C0CFA00FCC2F814C00AE0D0
:1003900091F803C0BCF1480F05D14FF0010C0CFAE5
:1003A00000FCC2F810C0401C0828D1D31460B1F87A
:1003B00000C0BCF1FF0F34DD546800202EE000F1D6
:1003C000080C4FF0010808FA0CF3B1F800C00CEA71
:1003D00003069E4221D183004FF00F0C0CFA03F765
:1003E000BC4305FA03FC4CEA040491F803C0BCF1D9
:1003F000280F05D100F1080C08FA0CF8C2F8148097
:1004000091F803C0BCF1480F07D100F1080C4FF080
:10041000010808FA0CF8C2F81080401C0828CED356
:100420005460BDE8F0810000F0B50A4600230024C6
:100430000021002500F00046B6F1004F02D11D4E0C
:10044000F16901E01B4E7168C0F3034583B200F40B
:100450004016B6F5401F08D121F07061154E766840
:1004600026F07066134F7E6012E000F48016B6F539
:10047000801F06D1032606FA05F4A14341F07061FE
:1004800006E0460D360103FA06F6B14341F070610D
:1004900022B1460D360103FA06F6314300F000465C
:1004A000B6F1004F02D1034EF16101E0014E7160DF
:1004B000F0BD00000000014000BFFEE700BFFEE706
:1004C000704708B500214FF0006000F057F84FF476
:1004D000A06000F049F825208DF8000001208DF87B
:1004E000010000208DF8020001208DF8030068460D
:1004F00000F002F808BD000070B5002100230F22B3
:10050000C47804B3154C246804F4E064C4F5E064D2
:10051000210AC1F10403CA40447804FA03F1847843
:100520001440214309010E4C0678A155047804F0CB
:100530001F050124AC4005786D11AD0005F1E025E3
:10054000C5F8004109E0047804F01F050124AC401F
:10055000044D0678761145F8264070BD0CED00E09C
:1005600000E400E080E100E002490143024A11603A
:10057000704700000000FA050CED00E0024A0A4056
:100580000243024B1A60704780FFFF1F08ED00E036
:100590007047000029B1064A92690243044B9A61F0
:1005A00004E0034A92698243014B9A61704700005C
:1005B0000010024010B501217D20FFF7EBFF012163
:1005C0008803FFF7E7FF10BD30B5002100220024AB
:1005D00000232D4D6D6805F00C0121B1042905D0D3
:1005E000082923D105E0294D056022E0274D05604B
:1005F0001FE0254D6D6805F47012234D6D6805F4FC
:100600008034022505EB92421CB9214D554305600B
:100610000BE01D4D6D6805F400351DB11C4D5543B3
:10062000056002E0194D5543056002E0174D056075
:1006300000BF00BF144D6D6805F0F0010909154DAC
:100640006B5C0568DD4045600F4D6D6805F4E06149
:10065000090A104D6B5C4568DD4085600A4D6D6888
:1006600005F46051C90A0B4D6B5C4568DD40C560FF
:10067000054D6D6805F44041890B074D6B5CC568FD
:10068000B5FBF3F5056130BD0010024000127A00A1
:1006900000093D000000002010000020704710B548
:1006A00000F002F810BD00000CB500200190009091
:1006B0003348006840F480303149086000BF30485A
:1006C000006800F4003000900198401C01900098F0
:1006D00018B90198B0F5A06FF1D12948006800F46D
:1006E000003010B10120009001E00020009000983F
:1006F000012843D12348006840F0100021490860D8
:100700000846006820F0030008600846006840F0D2
:10071000020008601A484068194948600846406865
:1007200048600846406840F4806048600846406879
:1007300020F47C1048600846406840F4E8104860A7
:100740000846006840F08070086000BF0C480068F0
:1007500000F000700028F9D00948406820F003003C
:10076000074948600846406840F00200486000BF02
:100770000348406800F00C000828F9D10CBD0000C7
:100780000010024000200240042808D14FF0E02170
:10079000096941F004014FF0E022116107E04FF0D8
:1007A000E021096921F004014FF0E0221161704756
:1007B00002480068401C014908607047140000208E
:1007C00010B50420FFF7E0FF08484FF0E021486132
:1007D000002088610846006940F002000861084670
:1007E000006940F00100086110BD00003F190100E0
:1007F00010B51348006840F0010011490860084630
:100800004068104908400E494860084600680E4993
:1008100008400B4908600846006820F48020086002
:100820000846406820F4FE0048604FF41F008860CE
:10083000FFF735FF4FF000600449086010BD00006D
:10084000001002400000FFF8FFFFF6FE08ED00E098
:1008500010B540F225513D4800F094F8002874D0BE
:100860003A4800F04BF9C4B2394800780B2864D2FA
:10087000DFE800F0635F59534D413931291206001A
:10088000AA2C05D132480078401E3149087002E098
:100890000A202F49087057E0722C05D0732C0BD119
:1008A000FF202C49087007E000202A4908700846FC
:1008B00000782949087000BF00BF25480078401E15
:1008C0002349087040E02548047021480078401E04
:1008D0001F49087038E0224804701D480078401E07
:1008E0001B49087030E01F48047019480078401E0A
:1008F0001749087028E01C48047015480078401E0D
:100900001349087013480078134908701CE0104818
:100910000078401E0E49087016E00D480078401E11
:100920000B49087010E00A480078401E084908701A
:100930000AE00A200649087006E00A200449087007
:1009400000200449087000BF00BF10BD00380140FE
:10095000200000202A000020210000202600002086
:1009600027000020280000202900002021B18289D2
:1009700042F40052828104E082894DF6FF731A40EE
:100980008281704770B502460024002300250020B4
:1009900040F66A16B14200D100BFC1F3421501F022
:1009A0001F03012606FA03F3012D02D19689334075
:1009B00006E0022D02D1168A334001E0968A3340C8
:1009C0000C12012606FA04F41688344013B10CB157
:1009D000012000E0002070BDF0B503460024002691
:1009E0000025002040F66A17B94200D100BF184622
:1009F000C1F3421401F01F06012707FA06F5012C86
:100A000001D10C3004E0022C01D1103000E0143090
:100A10001AB107682F43076002E00768AF43076019
:100A2000F0BD00002DE9F04786B005460E460024D3
:100A3000A24600BFA1460027B08900B100BF2F46E3
:100A40002C8A4CF6FF700440F08804432C82AC8959
:100A50004EF6F3100440B088318908437189084389
:100A60000443AC81AC8A4FF6FF400440B089044394
:100A7000AC8201A8FFF7A8FD1F48874202D1DDF82C
:100A800010A001E0DDF80CA0A88900F4004040B1FE
:100A90000AEBCA0000EB0A1031684900B0FBF1F81C
:100AA00007E00AEBCA0000EB0A1031688900B0FBCE
:100AB000F1F86420B8FBF0F004012009642101FB87
:100AC0001089A88900F4004040B1322000EBC90031
:100AD000B0FBF1F000F00700044308E0322000EB27
:100AE00009106421B0FBF1F000F00F0004432C81E9
:100AF00006B0BDE8F0870000003801400146888854
:100B0000C0F30800704700001FB50020ADF80400D6
:100B1000ADF80600ADF80800ADF80C000C20ADF8FB
:100B20000A004FF4E130009069460A48FFF77AFF67
:100B3000012240F225510748FFF74EFF002240F204
:100B400027710448FFF748FF01210248FFF70EFF15
:100B50001FBD00000038014000BFFEE710B54FF494
:100B6000805005490860502000F008F84FF480508C
:100B70000149091F086010BD140C0140054A1168A5
:100B800000BF044A1268521A824200D300E0F8E71C
:100B900000BF7047140000200146087820B90020EB
:100BA0000D4A1070012008700B48007838B90B48C6
:100BB00000680B4A10600120074A107009E00748DE
:100BC0000068074A1268801A4A68904201D30020E0
:100BD00070470120FCE700001A00002014000020EC
:100BE0001C00002086B0FFF703FEFFF7E3FCFFF7D1
:100BF00068FCFFF747FBFFF7E3FDFFF785FF4FF4C6
:100C00008070184908604FF47A70FFF7B7FFFFF75C
:100C1000A5FF0020144908708DF80C0005200490F1
:100C20001248059000208DF80000082001900F4820
:100C3000029016E003A80599884738B94FF48070F0
:100C40000849091F086000208DF80C0068460299C9
:100C5000884730B94FF480700249086000208DF851
:100C60000000E7E71408014018000020990B000875
:100C7000900C0008000000202C0000006C0100080F
:100C8000BC0C00082C00002064060000880100084D
:100C90000000000001020304010203040607080922
:100CA0000204060800000000000000000000000030
:0C0CB00000000000000000000000000038
:0400000508000131BD
:00000001FF
