:020000040800F2
:1000000088060020CD0100085D0A0008B509000837
:10001000590A0008F502000851110008000000000C
:10002000000000000000000000000000390C000883
:100030007D070008000000002D0B00084D0D000892
:10004000E7010008E7010008E7010008E7010008F0
:10005000E7010008E7010008E7010008E7010008E0
:10006000E7010008E7010008E7010008E7010008D0
:10007000E7010008E7010008E7010008E7010008C0
:10008000E7010008E7010008E7010008E7010008B0
:10009000E7010008E7010008E7010008E7010008A0
:1000A000E7010008E7010008E7010008E701000890
:1000B000E7010008E7010008E7010008E701000880
:1000C000E7010008E7010008E7010008E701000870
:1000D000E7010008290E0008E7010008E701000811
:1000E000E7010008E7010008E7010008E701000850
:1000F000E7010008E7010008E7010008E701000840
:10010000E7010008E7010008E7010008E70100082F
:10011000E7010008E7010008E7010008E70100081F
:10012000E7010008E7010008E7010008E70100080F
:1001300000F002F800F03AF80AA090E8000C8244BF
:100140008344AAF10107DA4501D100F02FF8AFF29C
:10015000090EBAE80F0013F0010F18BFFB1A43F0A5
:10016000010318470C1500002C150000103A24BF9D
:1001700078C878C1FAD8520724BF30C830C144BF0C
:1001800004680C607047000000230024002500264E
:10019000103A28BF78C1FBD8520728BF30C148BFEA
:1001A0000B6070471FB51FBD10B510BD00F031F8D2
:1001B0001146FFF7F7FF01F067F800F04FF803B4BE
:1001C000FFF7F2FF03BC00F053F800000948804736
:1001D00009480047FEE7FEE7FEE7FEE7FEE7FEE729
:1001E000FEE7FEE7FEE7FEE704480549054A064B41
:1001F000704700008D0D00083101000888000020C4
:10020000880600208802002088020020704770477E
:100210007047754600F028F8AE460500694653461B
:1002200020F00700854618B020B5FFF7DDFFBDE8D8
:1002300020404FF000064FF000074FF000084FF04D
:10024000000B21F00701AC46ACE8C009ACE8C009DE
:10025000ACE8C009ACE8C0098D4670470446AFF36E
:1002600000802046FFF7ABFF0048704728000020C1
:1002700001491820ABBEFEE72600020070470000CF
:1002800015480078FF2825D11448007814490880C3
:10029000084600884FF6FF7101EA002010490880E7
:1002A000084600880F49097808430D4908800E4820
:1002B00000780E490880084600884FF6FF7101EA71
:1002C00000200A490880084600880949097808433F
:1002D00006490880704700001D0000202200002011
:1002E0001E00002023000020240000202000002009
:1002F0002500002000BFFEE72DE9F04782460C46AE
:1003000015461E46DDE90989089FAA2000F06EFD0A
:10031000712000F06BFD504600F068FD201200F0E7
:1003200065FDE0B200F062FD281200F05FFDE8B26A
:1003300000F05CFD301200F059FDF0B200F056FD07
:10034000381200F053FDF8B200F050FD4FEA2820BB
:1003500000F04CFD08F0FF0000F048FD4FEA2920B6
:1003600000F044FD09F0FF0000F040FD00F04EFDFC
:10037000BDE8F0872DE9F05F83460C4615461E4622
:10038000DDE90B890A9FAA2000F030FD982000F0DB
:100390002DFD381200F02AFDF8B200F027FD4FEADB
:1003A000282000F023FD08F0FF0000F01FFD0020D2
:1003B00000F01CFD812000F019FD304600F016FD14
:1003C000584600F013FD204600F010FD002000F01C
:1003D0000DFD002000F00AFD4FF0000A09E099F839
:1003E000000000F003FD09F101090AF1010000F02D
:1003F000FF0AAA45F3DB00F009FDBDE8F09F00000D
:100400002DE9FE430746884616469946DDE90A452A
:100410000F2E13D2DFE806F008131E29343F4A5589
:10042000606B76818C97A20053A04B460122414617
:10043000CDE9004502903846FFF79CFF99E04FA0B8
:100440004B4601224146CDE9004502903846FFF770
:1004500091FF8EE04AA04B4601224146CDE900457E
:1004600002903846FFF786FF83E046A04B46012204
:100470004146CDE9004502903846FFF77BFF78E022
:1004800041A04B4601224146CDE900450290384645
:10049000FFF770FF6DE03DA04B4601224146CDE9DC
:1004A000004502903846FFF765FF62E038A04B46F2
:1004B00001224146CDE9004502903846FFF75AFF38
:1004C00057E034A04B4601224146CDE90045029059
:1004D0003846FFF74FFF4CE02FA04B460122414624
:1004E000CDE9004502903846FFF744FF41E02BA0DC
:1004F0004B4601224146CDE9004502903846FFF7C0
:1005000039FF36E026A04B4601224146CDE90045A1
:1005100002903846FFF72EFF2BE022A04B46012227
:100520004146CDE9004502903846FFF723FF20E021
:100530001DA04B4601224146CDE9004502903846B8
:10054000FFF718FF15E019A04B4601224146CDE9FF
:10055000004502903846FFF70DFF0AE014A04B4615
:1005600001224146CDE9004502903846FFF702FFDF
:1005700000BF00BFBDE8FE83300000003100000076
:10058000320000003300000034000000350000009D
:10059000360000003700000038000000390000007D
:1005A0002E00000056000000410000004200000044
:1005B000200000002DE9FF4F87B0DDE9178BDDE952
:1005C000156900270A20B6FBF0F100FB11608DF8D9
:1005D00014000A20B6FBF0F00A21B0FBF1F201FB97
:1005E00012008DF815006420B6FBF0F0B0FBF1F2BC
:1005F00001FB12008DF816004FF47A70B6FBF0F094
:10060000B0FBF1F201FB12008DF8170042F21070FE
:10061000B6FBF0F0B0FBF1F201FB12008DF8180010
:100620004C48B6FBF0F0B0FBF1F201FB12008DF884
:1006300019004948B6FBF0F0B0FBF1F201FB1200E3
:100640008DF81A004548B6FBF0F0B0FBF1F201FB63
:1006500012008DF81B0014980B2828D2DFE800F058
:1006600006090C0F1215181B1E21240006240C2548
:100670001DE0082410251AE00C24182517E010248A
:10068000202514E01424282511E0182430250EE03C
:100690001C2438250BE02024402508E02824502580
:1006A00005E03024602502E03824702500BF00BF3B
:1006B0000798FF280CDA0BEB050080B28DE80109E2
:1006C00009FB048083B25A4641460798FFF714FE9F
:1006D000039600BF781CC7B20A210398B0FBF1F063
:1006E000039003980028F5D14F4500DD4F46089848
:1006F00008B9C24613E0089801280AD1204604EB45
:10070000D0714910A9EB070202FB01811FFA81FA9F
:1007100005E0A9EB070000FB04801FFA80FACDF882
:1007200010B000BF781EC7B20498CDE900A005A89C
:10073000C25D149BDDE90901FFF762FE0AEB0400CC
:100740001FFA80FA00BF00BF002FEBDC0BB0BDE842
:10075000F08F0000A086010040420F0080969800B4
:1007600010B50446AA2000F041FB702000F03EFBCB
:10077000204600F03BFB00F049FB10BD7047000035
:1007800008B501211E4800F0CDF84FF48050ADF8B7
:10079000000003208DF8020010208DF80300694648
:1007A000184800F033F84FF48050164910310860B3
:1007B0000011ADF8000003208DF8020010208DF824
:1007C00003006946104800F021F84FF48060ADF84E
:1007D000000004208DF8030069460B4800F016F86D
:1007E0004FF40070ADF8000003208DF802001820CF
:1007F0008DF803006946044800F008F808BD0000C1
:1008000000023000000C0140000801402DE9F041D9
:10081000024600250026002000230024002791F82E
:1008200003C00CF00F0591F803C00CF0100CBCF1E4
:10083000000F03D091F802C04CEA050591F800C002
:10084000BCF1000F31D0146800202BE04FF0010CF8
:100850000CFA00F3B1F800C00CEA03069E4220D166
:1008600083004FF00F0C0CFA03F7BC4305FA03FCAE
:100870004CEA040491F803C0BCF1280F06D14FF0F4
:10088000010C0CFA00FCC2F814C00AE091F803C095
:10089000BCF1480F05D14FF0010C0CFA00FCC2F876
:1008A00010C0401C0828D1D31460B1F800C0BCF1BE
:1008B000FF0F34DD546800202EE000F1080C4FF0EB
:1008C000010808FA0CF3B1F800C00CEA03069E42D6
:1008D00021D183004FF00F0C0CFA03F7BC4305FA4B
:1008E00003FC4CEA040491F803C0BCF1280F05D1C5
:1008F00000F1080C08FA0CF8C2F8148091F803C053
:10090000BCF1480F07D100F1080C4FF0010808FABC
:100910000CF8C2F81080401C0828CED35460BDE803
:10092000F0810000F0B50A460023002400210025D4
:1009300000F00046B6F1004F02D11D4EF16901E012
:100940001B4E7168C0F3034583B200F44016B6F540
:10095000401F08D121F07061154E766826F0706650
:10096000134F7E6012E000F48016B6F5801F06D1AA
:10097000032606FA05F4A14341F0706106E0460D36
:10098000360103FA06F6B14341F0706122B1460D1B
:10099000360103FA06F6314300F00046B6F1004F87
:1009A00002D1034EF16101E0014E7160F0BD000023
:1009B0000000014000BFFEE72DE9F04104460A4671
:1009C000002000233EE0990032F821801FFA88F6CB
:1009D00001F101081FFA88F132F821801FFA88F529
:1009E00001F101081FFA88F132F821801FFA88FC12
:1009F00001F101081FFA88F132F821801FFA88F707
:100A0000DFF84C80B8F80080B04517DBDFF8408095
:100A1000B8F80080A84511DCDFF83880B8F800800D
:100A2000E0450BDBDFF82C80B8F80080B84505DC2A
:100A3000184600F1010808F0FF0005E003F1010885
:100A400008F0FF03A342BEDB00BFBDE8F081000059
:100A50001E0000202000002000BFFEE7704708B500
:100A600000214FF0006000F057F84FF4A06000F054
:100A700049F825208DF8000001208DF801000020A4
:100A80008DF8020001208DF80300684600F002F89E
:100A900008BD000070B5002100230F22C47804B304
:100AA000154C246804F4E064C4F5E064210AC1F143
:100AB0000403CA40447804FA03F1847814402143C3
:100AC00009010E4C0678A155047804F01F05012495
:100AD000AC4005786D11AD0005F1E025C5F8004189
:100AE00009E0047804F01F050124AC40044D0678A9
:100AF000761145F8264070BD0CED00E000E400E002
:100B000080E100E002490143024A116070470000A1
:100B10000000FA050CED00E0024A0A400243024BD5
:100B20001A60704780FFFF1F08ED00E0704700006B
:100B300029B1064A92690243044B9A6104E0034AD0
:100B400092698243014B9A61704700000010024095
:100B500010B501217D20FFF7EBFF01218803FFF78E
:100B6000E7FF10BD30B500210022002400232D4DE9
:100B70006D6805F00C0121B1042905D0082923D1A5
:100B800005E0294D056022E0274D05601FE0254D59
:100B90006D6805F47012234D6D6805F480340225EC
:100BA00005EB92421CB9214D554305600BE01D4DEC
:100BB0006D6805F400351DB11C4D5543056002E01C
:100BC000194D5543056002E0174D056000BF00BF99
:100BD000144D6D6805F0F0010909154D6B5C056851
:100BE000DD4045600F4D6D6805F4E061090A104D68
:100BF0006B5C4568DD4085600A4D6D6805F46051A9
:100C0000C90A0B4D6B5C4568DD40C560054D6D68DC
:100C100005F44041890B074D6B5CC568B5FBF3F5E6
:100C2000056130BD0010024000127A0000093D004D
:100C30000000002010000020704710B500F002F8FE
:100C400010BD00000CB500200190009033480068F2
:100C500040F480303149086000BF3048006800F43B
:100C6000003000900198401C0190009818B901983C
:100C7000B0F5A06FF1D12948006800F4003010B140
:100C80000120009001E0002000900098012843D14D
:100C90002348006840F010002149086008460068B9
:100CA00020F0030008600846006840F00200086079
:100CB0001A48406819494860084640684860084634
:100CC000406840F4806048600846406820F47C102A
:100CD00048600846406840F4E810486008460068EC
:100CE00040F08070086000BF0C48006800F00070A1
:100CF0000028F9D00948406820F0030007494860FF
:100D00000846406840F00200486000BF0348406861
:100D100000F00C000828F9D10CBD000000100240C2
:100D200000200240042808D14FF0E021096941F079
:100D300004014FF0E022116107E04FF0E021096962
:100D400021F004014FF0E022116170470248006871
:100D5000401C0149086070471400002010B50420B1
:100D6000FFF7E0FF08484FF0E0214861002088616C
:100D70000846006940F0020008610846006940F03A
:100D80000100086110BD00003F19010010B51348B3
:100D9000006840F0010011490860084640681049A9
:100DA00008400E494860084600680E4908400B4953
:100DB00008600846006820F4802008600846406803
:100DC00020F4FE0048604FF41F008860FFF735FFF5
:100DD0004FF000600449086010BD000000100240A0
:100DE0000000FFF8FFFFF6FE08ED00E010B5044636
:100DF00000BF8021044800F0B1F80028F9D0214656
:100E0000014800F078F910BD0038014010B5CC2041
:100E1000FFF7ECFF3320FFF7E9FFC320FFF7E6FF02
:100E20003C20FFF7E3FF10BD10B540F225513D48CF
:100E300000F0A1F8002874D03A4800F057F9C4B285
:100E4000394800780B2864D2DFE800F0635F59531B
:100E50004D41393129120600AA2C05D132480078BB
:100E6000401E3149087002E00A202F49087057E0FF
:100E7000722C05D0732C0BD1FF202C49087007E091
:100E800000202A490870084600782949087000BFE8
:100E900000BF25480078401E2349087040E02548DF
:100EA000047021480078401E1F49087038E022482D
:100EB00004701D480078401E1B49087030E01F4830
:100EC000047019480078401E1749087028E01C4833
:100ED000047015480078401E1349087013480078C4
:100EE000134908701CE010480078401E0E49087035
:100EF00016E00D480078401E0B49087010E00A48C3
:100F00000078401E084908700AE00A200649087067
:100F100006E00A200449087000200449087000BF58
:100F200000BF10BD003801401C000020260000203A
:100F30001D000020220000202300002024000020AB
:100F40002500002021B1828942F40052828104E010
:100F500082894DF6FF731A40828170470246002055
:100F6000B1F5007F00D100BF13880B400BB1012009
:100F700000E00020704770B50246002400230025E1
:100F8000002040F66A16B14200D100BFC1F34215FD
:100F900001F01F03012606FA03F3012D02D1968901
:100FA000334006E0022D02D1168A334001E0968AD2
:100FB00033400C12012606FA04F41688344013B1AB
:100FC0000CB1012000E0002070BDF0B50346002404
:100FD00000260025002040F66A17B94200D100BF64
:100FE0001846C1F3421401F01F06012707FA06F55F
:100FF000012C01D10C3004E0022C01D1103000E0B2
:1010000014301AB107682F43076002E00768AF4346
:101010000760F0BD2DE9F04786B005460E46002476
:10102000A24600BFA1460027B08900B100BF2F46ED
:101030002C8A4CF6FF700440F08804432C82AC8963
:101040004EF6F3100440B088318908437189084393
:101050000443AC81AC8A4FF6FF400440B08904439E
:10106000AC8201A8FFF77EFD1F48874202D1DDF860
:1010700010A001E0DDF80CA0A88900F4004040B108
:101080000AEBCA0000EB0A1031684900B0FBF1F826
:1010900007E00AEBCA0000EB0A1031688900B0FBD8
:1010A000F1F86420B8FBF0F004012009642101FB91
:1010B0001089A88900F4004040B1322000EBC9003B
:1010C000B0FBF1F000F00700044308E0322000EB31
:1010D00009106421B0FBF1F000F00F0004432C81F3
:1010E00006B0BDE8F087000000380140014688885E
:1010F000C0F308007047C1F3080282807047000007
:101100001FB50020ADF80400ADF80600ADF80800EA
:10111000ADF80C000C20ADF80A004FF4E13000905F
:1011200069460A48FFF776FF012240F22551074839
:10113000FFF74BFF002240F227710448FFF745FFFD
:1011400001210248FFF7FEFE1FBD000000380140EC
:1011500000BFFEE710B54FF48050054908605020ED
:1011600000F008F84FF480500149091F086010BDD5
:10117000140C0140054A116800BF044A1268521A53
:10118000824200D300E0F8E700BF7047140000205F
:1011900070B505460C46062D1FD12078012810D1C8
:1011A000607807280DD1A07801280AD1E0780228BC
:1011B00007D12079012804D16079022801D10020CB
:1011C00070BD002020706070A070E07020716071B0
:1011D0000025284600F00EF80AE00020207060701C
:1011E000A070E070207160710025284600F002F8C0
:1011F0000120E5E72DE9FE43044640F2DE364FF4D8
:10120000B9774FF019084FF4AF7040F20A314FF43C
:10121000DA724FF48663CDE900210290024626205F
:10122000FFF76AF8002C14DD062C12DC00250EE016
:1012300009A005230122FF21CDE90067029008469D
:10124000FFF798F8A6EB080086B2681CC5B2A54265
:10125000EEDBBDE8FE8300002A00000010E0012064
:10126000FFF788FF0748007810B1012806D102E097
:1012700000F02AF903E000F02FF800E000BF00BF03
:10128000EDE7000018000020FFF780FDFFF760FC8D
:10129000FFF7E5FBFFF774FAFFF760FDFFF730FF9C
:1012A0004FF48070094908604FF47A70FFF762FFCD
:1012B000002007490870642006490870084600F0BD
:1012C00057F901E0FFF7CAFFFCE7000014080140EE
:1012D000180000201A00002030B585B02620FFF746
:1012E0003FFA00208DF80C008DF80D008DF80E00EF
:1012F0008DF80F008DF810008DF8110000246EA0FD
:10130000DC2164220523CDE9002102900422FF2183
:101310000846FFF72FF800BF0120FFF72BFF6848B2
:10132000007800287AD0FEF7ABFF66490E20FFF761
:1013300043FB05460F2D15D2DFE805F0B608152250
:101340002F3C495663717E8B9FA2AF00062C09DAB1
:10135000FFF700FF012003A90855601CC4B2204616
:10136000FFF748FFA0E0062C09DAFFF7F3FE0220A2
:1013700003A90855601CC4B22046FFF73BFF93E069
:10138000062C09DAFFF7E6FE032003A90855601CC6
:10139000C4B22046FFF72EFF86E0062C09DAFFF7DD
:1013A000D9FE042003A90855601CC4B22046FFF7EB
:1013B00021FF79E0062C09DAFFF7CCFE052003A90E
:1013C0000855601CC4B22046FFF714FF6CE0062CE1
:1013D00009DAFFF7BFFE062003A90855601CC4B256
:1013E0002046FFF707FF5FE0062C09DAFFF7B2FEA1
:1013F000072003A90855601CC4B22046FFF7FAFE77
:1014000052E0062C09DAFFF7A5FE082003A90855CB
:10141000601CC4B22046FFF7EDFE45E048E0062C14
:1014200009DAFFF797FE092003A90855601CC4B22A
:101430002046FFF7DFFE37E0062C09DAFFF78AFEC9
:10144000002003A90855601CC4B22046FFF7D2FE55
:101450002AE0FFF77FFE00208DF80C008DF80D00CC
:101460008DF80E008DF80F008DF810008DF811002A
:1014700000242046FFF7BEFE16E0FFF76BFE18E0E3
:10148000FFF768FE002003A90855002C01DD601E4F
:10149000C4B22046FFF7AEFE06E0FFF75BFE03A9ED
:1014A0002046FFF775FE04E000BF002004490870E5
:1014B00032E700BF05B030BD56312E3000000000CD
:1014C0001D0000209015000810B586B01820FFF709
:1014D00047F90021052323480078CDE90231049122
:1014E00001900320FF231A46012100901820FFF7E6
:1014F00061F805201B490870642100220523194862
:101500000078CDE90232049101900320FF231A46AE
:10151000012100901820FFF74DF800BF0120FFF7D0
:1015200029FE11480078C8B1FEF7AAFE0F49012034
:10153000FFF742FA0446012C04D0022C05D0032CFC
:101540000AD108E0FFF706FE07E0FFF703FE0020E0
:101550000549087003E000E000BF00BFDEE700BF00
:1015600006B010BD1A0000201D0000207C150008E8
:101570001E21017070470000010000000000000003
:101580006400000000000000640000000E00000085
:10159000BC0200000F030000DF0100003302000066
:1015A000270300007A030000DF010000330200007F
:1015B00092030000E5030000DF0100003302000099
:1015C000FD03000050040000DF01000033020000B2
:1015D00068040000BB040000DF01000033020000CB
:1015E000BC0200000F03000056020000AA02000027
:1015F000270300007A03000056020000AA02000040
:1016000092030000E503000056020000AA02000059
:10161000FD0300005004000056020000AA02000072
:1016200068040000BB04000056020000AA0200008B
:101630000A030000300400005E010000B401000055
:10164000230300009B030000C60200000B03000000
:101650003E0400005E0400007901000099010000D2
:10166000E30300005B040000C60200000B0300005F
:101670009016000800000020280000006C010008FF
:10168000B816000828000020600600008801000845
:101690000000000001020304010203040607080918
:1016A0000204060800000000000000000000000026
:0816B000000000000000000032
:0400000508000131BD
:00000001FF
