:020000040800F2
:1000000018070020CD0100083D110008D30D00089D
:1000100039110008FD050008411F0008000000001C
:100020000000000000000000000000009513000820
:10003000790A00080000000029120008E1180008F1
:10004000E7010008E7010008E7010008E7010008F0
:10005000E7010008E7010008E7010008E7010008E0
:10006000E7010008E7010008E7010008E7010008D0
:10007000E7010008E7010008E7010008E7010008C0
:10008000E7010008E7010008E7010008E7010008B0
:10009000E7010008E7010008E7010008E7010008A0
:1000A000E7010008E7010008E7010008E701000890
:1000B000E7010008B9190008E7010008E701000896
:1000C000E7010008E7010008E7010008E701000870
:1000D000E7010008FD1B0008E7010008E701000830
:1000E000E7010008E7010008E7010008E701000850
:1000F000E7010008E7010008E7010008E701000840
:10010000E7010008E7010008E7010008E70100082F
:10011000E7010008E7010008E7010008E70100081F
:10012000E7010008E7010008E7010008E70100080F
:1001300000F002F800F03AF80AA090E8000C8244BF
:100140008344AAF10107DA4501D100F02FF8AFF29C
:10015000090EBAE80F0013F0010F18BFFB1A43F0A5
:1001600001031847A0480000C0480000103A24BF0F
:1001700078C878C1FAD8520724BF30C830C144BF0C
:1001800004680C607047000000230024002500264E
:10019000103A28BF78C1FBD8520728BF30C148BFEA
:1001A0000B6070471FB51FBD10B510BD00F031F8D2
:1001B0001146FFF7F7FF02F0F9FE00F04FF803B425
:1001C000FFF7F2FF03BC00F053F800000948804736
:1001D00009480047FEE7FEE7FEE7FEE7FEE7FEE729
:1001E000FEE7FEE7FEE7FEE704480549054A064B41
:1001F000704700005919000831010008180100205B
:1002000018070020180300201803002070477047CB
:100210007047754600F028F8AE460500694653461B
:1002200020F00700854618B020B5FFF7DDFFBDE8D8
:1002300020404FF000064FF000074FF000084FF04D
:10024000000B21F00701AC46ACE8C009ACE8C009DE
:10025000ACE8C009ACE8C0098D4670470446AFF36E
:1002600000802046FFF7ABFF00487047B400002035
:1002700001491820ABBEFEE726000200704721B1FD
:10028000826842F00102826003E0826822F001028B
:100290008260704710B504461248844208D101219B
:1002A000401500F0EFFF0021601500F0EBFF17E0B4
:1002B0000D48844208D10121001500F0E3FF002120
:1002C000201500F0DFFF0BE00848844208D101212F
:1002D000C80300F0D7FF00214FF4004000F0D2FF28
:1002E00010BD00000024014000280140003C0140F6
:1002F000014600208A6802F004020AB1012000E0F1
:10030000002070470146C86C80B27047024600204A
:1003100013680B400BB1012000E00020704701463C
:1003200000208A6802F008020AB1012000E00020E3
:100330007047000030B502460020002350680F4C83
:1003400020400D790C6844EA0524204350609068F1
:100350000B4C2040D1E902542C434D7944EA45042A
:1003600020439060D06A20F470000C7C641EE4B2DC
:10037000234340EA0350D06230BD0000FFFEF0FF8F
:10038000FDF7F1FFF0B504460D4600200021092DD0
:1003900011DDE068A5F10A0606EB4607072606FA16
:1003A00007F18843A5F10A0606EB460603FA06F1B3
:1003B0000843E0600CE0206905EB4507072606FAD4
:1003C00007F1884305EB450603FA06F1084320616F
:1003D000072A0FDA606B561E06EB86071F2606FA01
:1003E00007F18843561E06EB860605FA06F1084318
:1003F000606322E00D2A0FDA206BD61F06EB86071A
:100400001F2606FA07F18843D61F06EB860605FA73
:1004100006F10843206310E0E06AA2F10D0606EB46
:1004200086071F2606FA07F18843A2F10D0606EBA0
:10043000860605FA06F10843E062F0BD816841F0E6
:1004400008018160704721B1826842F4A002826095
:1004500003E0826822F4A00282607047816841F064
:10046000040181607047000008B50E480078FF283D
:1004700017D10D4800788DF801000C4800788DF8F0
:100480000000BDF800000A4908800A4800788DF88D
:100490000100094800788DF80000BDF80000074908
:1004A000088008BD450000204A0000204B000020C5
:1004B000460000204C0000204D0000204800002095
:1004C00010B500F0B1FC10BD70B50446002600F078
:1004D00065FD2546E11704EB11610912A02202EB2C
:1004E0004101C8B200F026FD00F0A4FDE11704EBC5
:1004F00011610912A4EB0121C8B200F01BFD00F04C
:1005000099FD00F04BFDA12000F014FD00F092FDDC
:10051000002000F0D7FC064600F066FD304670BDB6
:1005200070B504460E4600F039FD2546E11704EB90
:1005300011610912A02202EB4101C8B200F0FAFCDD
:1005400000F078FDE11704EB11610912A4EB012121
:10055000C8B200F0EFFC00F06DFD304600F0EAFCA0
:1005600000F068FD00F040FD0A2001F0FBFC70BDCA
:1005700000B587B001214FF4017000F073FE4FF415
:10058000004000F053FE0220ADF8040000208DF87A
:10059000070001A9174800F00BFB1748FFF77AFE88
:1005A000002002908DF80C008DF80D004FF46020B3
:1005B00004900020059001208DF8180002A90E4833
:1005C000FFF7B8FE01210C48FFF759FE0A48FFF774
:1005D00035FF00BF0848FFF7A2FE0028FAD1064801
:1005E000FFF73CFF00BF0448FFF782FE0028FAD166
:1005F00007B000BD000801400024014000BFFEE735
:100600002DE9F84F04460D4616461F46DDE90B9AC4
:10061000DDF8288071201B494870084684700095D9
:100620009DF80100C8709DF80000087100969DF8C3
:10063000010048719DF80000887100979DF8010045
:10064000C8719DF800000872CDF800809DF8010087
:1006500048729DF800008872CDF800909DF8010066
:10066000C8729DF800000873CDF800A09DF8010045
:1006700048739DF8000088730F2001F08DFABDE8E3
:10068000F88F00009A0000202DE9F84F05460E462D
:1006900014461F46DDF828B0DDF8308098201D494B
:1006A0004870CDF800B09DF8010088709DF80000FA
:1006B000C8700B9800909DF8010008719DF800002B
:1006C0004871002088718120C87108460772457200
:1006D00086720020C87208734FF00D0A81460EE042
:1006E00098F800000B4901F80A000AF1010000F037
:1006F000FF0A08F1010809F1010000F0FF09A14516
:10070000EEDB04F10D00C4B2204601F045FABDE86D
:10071000F88F00009A0000202DE9FE430746884626
:1007200016469946DDE90A450F2E13D2DFE806F09A
:1007300008131E29343F4A55606B76818C97A200BE
:1007400053A04B4601224146CDE900450290384670
:10075000FFF79AFF99E04FA04B4601224146CDE9B1
:10076000004502903846FFF78FFF8EE04AA04B46C7
:1007700001224146CDE9004502903846FFF784FF4B
:1007800083E046A04B4601224146CDE90045029058
:100790003846FFF779FF78E041A04B4601224146F9
:1007A000CDE9004502903846FFF76EFF6DE03DA0B1
:1007B0004B4601224146CDE9004502903846FFF7FD
:1007C00063FF62E038A04B4601224146CDE9004577
:1007D00002903846FFF758FF57E034A04B460122FD
:1007E0004146CDE9004502903846FFF74DFF4CE009
:1007F0002FA04B4601224146CDE9004502903846E4
:10080000FFF742FF41E02BA04B4601224146CDE9D4
:10081000004502903846FFF737FF36E026A04B46EA
:1008200001224146CDE9004502903846FFF72CFFF2
:100830002BE022A04B4601224146CDE90045029023
:100840003846FFF721FF20E01DA04B46012241461C
:10085000CDE9004502903846FFF716FF15E019A0D4
:100860004B4601224146CDE9004502903846FFF74C
:100870000BFF0AE014A04B4601224146CDE900459A
:1008800002903846FFF700FF00BF00BFBDE8FE83BF
:100890003000000031000000320000003300000092
:1008A0003400000035000000360000003700000072
:1008B00038000000390000002E0000005600000043
:1008C0004100000042000000200000002DE9FF4F21
:1008D00087B0DDE9178BDDE9155900270A20B5FB44
:1008E000F0F100FB11508DF814000A20B5FBF0F078
:1008F0000A21B0FBF1F201FB12008DF81500642013
:10090000B5FBF0F0B0FBF1F201FB12008DF8160020
:100910004FF47A70B5FBF0F0B0FBF1F201FB12007E
:100920008DF8170042F21070B5FBF0F0B0FBF1F259
:1009300001FB12008DF818004548B5FBF0F0B0FB44
:10094000F1F201FB12008DF819004248B5FBF0F0FE
:10095000B0FBF1F201FB12008DF81A003E48B5FB26
:10096000F0F0B0FBF1F201FB12008DF81B001498BF
:1009700008281DD2DFE800F004070A0D101316192D
:1009800006240C2614E00824102611E00C24182656
:100990000EE0102420260BE01424282608E018245A
:1009A000302605E01C24382602E02024402600BF23
:1009B00000BF0798FF280CDA0BEB060080B28DE829
:1009C000010909FB048083B25A4641460798FFF7A4
:1009D00017FE039500BF781CC7B20A210398B0FB2D
:1009E000F1F0039003980028F5D14F4500DD4F4604
:1009F000089808B9C24613E0089801280AD1204691
:100A000004EBD0714910A9EB070202FB01811FFA28
:100A100081FA05E0A9EB070000FB04801FFA80FAC9
:100A2000CDF810B000BF781EC7B20498CDE900A081
:100A300005A8C25D149BDDE90901FFF76DFE0AEB15
:100A400004001FFA80FA002FEDDC0BB0BDE8F08F38
:100A5000A086010040420F008096980010B5044621
:100A600070200449487008468470032001F094F80F
:100A700010BD00009A0000207047000008B5012159
:100A8000484800F021F94FF40040ADF80000032081
:100A90008DF8020010208DF803006946424800F0EE
:100AA00087F81020ADF800008DF8030003208DF8C2
:100AB000020069463D4800F07BF810213B4800F0F9
:100AC00054F90820ADF8000003208DF80200102032
:100AD0008DF803006946354800F06AF88020ADF8CB
:100AE000000003208DF8020010208DF803006946F5
:100AF0002E4800F05DF84020ADF8000003208DF88E
:100B0000020010208DF803006946284800F050F8D4
:100B10004FF40070ADF8000028208DF803006946FE
:100B2000224800F045F80820ADF8000003208DF8B9
:100B3000020010208DF8030069461C4800F038F8C8
:100B40002020ADF8000003208DF8020010208DF861
:100B500003006946154800F02BF84FF48070ADF89B
:100B6000000048208DF803006946104800F020F886
:100B70004FF48060ADF8000004208DF80300694652
:100B8000094800F015F84FF40070ADF8000003209C
:100B90008DF8020018208DF803006946024800F025
:100BA00007F808BD0002300000080140000C0140B9
:100BB0002DE9F041024600250026002000230024F4
:100BC000002791F803C00CF00F0591F803C00CF05A
:100BD000100CBCF1000F03D091F802C04CEA0505DF
:100BE00091F800C0BCF1000F31D0146800202BE058
:100BF0004FF0010C0CFA00F3B1F800C00CEA030648
:100C00009E4220D183004FF00F0C0CFA03F7BC4337
:100C100005FA03FC4CEA040491F803C0BCF1280F68
:100C200006D14FF0010C0CFA00FCC2F814C00AE027
:100C300091F803C0BCF1480F05D14FF0010C0CFA3C
:100C400000FCC2F810C0401C0828D1D31460B1F8D1
:100C500000C0BCF1FF0F34DD546800202EE000F12D
:100C6000080C4FF0010808FA0CF3B1F800C00CEAC8
:100C700003069E4221D183004FF00F0C0CFA03F7BC
:100C8000BC4305FA03FC4CEA040491F803C0BCF130
:100C9000280F05D100F1080C08FA0CF8C2F81480EE
:100CA00091F803C0BCF1480F07D100F1080C4FF0D8
:100CB000010808FA0CF8C2F81080401C0828CED3AE
:100CC0005460BDE8F0810000F0B50A46002300241E
:100CD0000021002500F00046B6F1004F02D11D4E64
:100CE000F16901E01B4E7168C0F3034583B200F463
:100CF0004016B6F5401F08D121F07061154E766898
:100D000026F07066134F7E6012E000F48016B6F590
:100D1000801F06D1032606FA05F4A14341F0706155
:100D200006E0460D360103FA06F6B14341F0706164
:100D300022B1460D360103FA06F6314300F00046B3
:100D4000B6F1004F02D1034EF16101E0014E716036
:100D5000F0BD0000000001400246002093680B40F7
:100D60000BB1012000E000207047016170470000D6
:100D700010B504460723012221460948FFF702FB6C
:100D800001210748FFF75FFB00BF02210448FFF77E
:100D9000BDFA0028F9D00248FFF7B4FA10BD0000F0
:100DA000002401402DE9F04107460C4600250026AD
:100DB00008E03846FFF7DCFF0544052001F0D2F8D3
:100DC000701CC6B2A642F4DBB5FBF4F080B2BDE8FD
:100DD000F08100BFFEE7000010B500200F49086059
:100DE0000F48006820F00F000D49086008460068B1
:100DF00040F00300086000200A49C1F88001022089
:100E000001F0BEF8012005490860022001F0B8F8A1
:100E100000200449C1F8840110BD000084812142F2
:100E2000000C01400080214208B50121102000F093
:100E300019FA01210B48FFF747FF0220ADF8000027
:100E400010208DF8030003208DF802006946064843
:100E5000FFF7AEFE0120054908600549C1F8800191
:100E600008BD000000023000000C014084812142D6
:100E70000080214210B500200F4908600F4800682B
:100E800020F00F000D4908600846006840F003009C
:100E9000086001200A49C1F88001022001F070F8C1
:100EA000012005490860022001F06AF80020044989
:100EB000C1F8840110BD000084812142000C014072
:100EC0000080214270B5054600241748006820F0D4
:100ED0000F00154908600846006840F008000860E7
:100EE000002616E0002011490860022001F048F8B1
:100EF00001200F49C1F884016006040E0B488438B4
:100F0000006808B1601CC4B2012001F039F8701CFF
:100F1000C6B2082EE6DB15B9FFF7ACFF01E0FFF71C
:100F20005BFF204670BD0000000C0140848121421F
:100F30000080214270B504461548006820F00F007B
:100F4000134908600846006840F00300086000206C
:100F500010490860002517E0E0090E49091F0860E4
:100F60006006040E022001F00BF801200A49C1F8C6
:100F70008401022001F004F80020064908600220E4
:100F800000F0FEFF681CC5B2082DE5DB70BD000057
:100F9000000C0140848121420080214210B50F489D
:100FA000006820F00F000D4908600846006840F016
:100FB0000300086001200A4908600A49C1F8840159
:100FC000042000F0DDFF002005490860042000F047
:100FD000D7FF00200349C1F8840110BD000C014077
:100FE000808121420080214210B50F48006820F026
:100FF0000F000D4908600846006840F003000860D3
:1010000000200A4908600A49C1F88001042000F064
:10101000B7FF0120054908600549C1F88001042097
:1010200000F0AEFF10BD0000000C014084812142A1
:101030000080214210B500241448006820F00F0001
:10104000124908600846006840F008000860012066
:101050000F49086000F094FF01200E49C1F8840197
:1010600000F08EFF07E0601CC4B2FA2C03DDFFF72E
:10107000BBFF012010BD0648803800680028F2D16F
:101080000349091D086000BFF4E70000000C01409F
:1010900080812142008021422DE9F04104460A4628
:1010A000002000233EE0990032F821801FFA88F6E4
:1010B00001F101081FFA88F132F821801FFA88F542
:1010C00001F101081FFA88F132F821801FFA88FC2B
:1010D00001F101081FFA88F132F821801FFA88F720
:1010E000DFF84C80B8F80080B04517DBDFF84080AF
:1010F000B8F80080A84511DCDFF83880B8F8008027
:10110000E0450BDBDFF82C80B8F80080B84505DC43
:10111000184600F1010808F0FF0005E003F101089E
:1011200008F0FF03A342BEDB00BFBDE8F081000072
:10113000460000204800002000BFFEE7704708B5C9
:1011400000214FF0006000F065F84FF4A06000F05F
:1011500057F81D208DF8000000208DF801008DF853
:10116000020001208DF80300684600F011F82520E8
:101170008DF8000001208DF8010000208DF802009C
:1011800001208DF80300684600F002F808BD000059
:1011900070B5002100230F22C47804B3154C2468D5
:1011A00004F4E064C4F5E064210AC1F10403CA4018
:1011B000447804FA03F184781440214309010E4C69
:1011C0000678A155047804F01F050124AC40057889
:1011D0006D11AD0005F1E025C5F8004109E0047886
:1011E00004F01F050124AC40044D0678761145F843
:1011F000264070BD0CED00E000E400E080E100E07E
:1012000002490143024A1160704700000000FA05DC
:101210000CED00E0024A0A400243024B1A6070479C
:1012200080FFFF1F08ED00E070470000014600202E
:10123000034A506820F44040084350607047000063
:101240000010024029B1064AD2690243044BDA6118
:1012500004E0034AD2698243014BDA61704700001F
:101260000010024029B1064A92690243044B9A6178
:1012700004E0034A92698243014B9A61704700007F
:101280000010024029B1064AD2680243044BDA60DA
:1012900004E0034AD2688243014BDA6070470000E1
:1012A0000010024010B501217D20FFF7DBFF012176
:1012B0008803FFF7D7FF01210220FFF7C3FF10BD0E
:1012C00030B500210022002400232D4D6D6805F06B
:1012D0000C0121B1042905D0082923D105E0294DAD
:1012E000056022E0274D05601FE0254D6D6805F47F
:1012F0007012234D6D6805F48034022505EB92428F
:101300001CB9214D554305600BE01D4D6D6805F47A
:1013100000351DB11C4D5543056002E0194D554384
:10132000056002E0174D056000BF00BF144D6D68F9
:1013300005F0F0010909154D6B5C0568DD4045605D
:101340000F4D6D6805F4E061090A104D6B5C45684E
:10135000DD4085600A4D6D6805F46051C90A0B4D8A
:101360006B5C4568DD40C560054D6D6805F4404126
:10137000890B074D6B5CC568B5FBF3F5056130BDA6
:101380000010024000127A0000093D000000002019
:1013900010000020704710B500F002F810BD0000EA
:1013A0000CB50020019000903348006840F4803074
:1013B0003149086000BF3048006800F400300090F8
:1013C0000198401C0190009818B90198B0F5A06FE1
:1013D000F1D12948006800F4003010B101200090DC
:1013E00001E0002000900098012843D123480068C4
:1013F00040F01000214908600846006820F0030012
:1014000008600846006840F0020008601A4840681A
:10141000194948600846406848600846406840F4FA
:10142000806048600846406820F47C1048600846A8
:10143000406840F4E81048600846006840F080705A
:10144000086000BF0C48006800F000700028F9D068
:101450000948406820F00300074948600846406892
:1014600040F00200486000BF0348406800F00C00F4
:101470000828F9D10CBD00000010024000200240F5
:1014800008B501210420FFF7EDFE01210820FFF738
:10149000E9FE10208DF803004FF44040ADF8000045
:1014A00003208DF8020069460D48FFF781FB1020EC
:1014B0008DF803000001ADF8000003208DF8020054
:1014C00069460848FFF774FB4FF40050ADF8000080
:1014D00048208DF8030069460148FFF769FB08BD05
:1014E000000C01400008014070B5002500241B4895
:1014F000006820F00F00194908600846006840F0B5
:101500000800086000BF14E00020154908600A20A8
:1015100000F036FD01201349C1F8B8010A2000F09F
:101520002FFD64101048006808B144F08004681C66
:10153000C5B2082DE8DB0020094908600A2000F048
:101540001FFD0648006820F00F00044908600846A7
:10155000006840F003000860204670BD04080140A8
:10156000B881214200802142200121422DE9F04131
:101570000746884615461E46002400F011F8002252
:101580004146384600F02EF900BF04E0FFF7ACFFFB
:101590003055601CC4B2AC42F8DBBDE8F0810000FD
:1015A00010B51A48006820F00F0018490860084676
:1015B000006840F0030008600020154908601549E4
:1015C000C1F8B8010A2000F0DBFC012010490860D6
:1015D0000A2000F0D5FC01200E49C1F8B801142002
:1015E00000F0CEFC00200A49091F08600A2000F024
:1015F000C7FC00200749C1F8BC01FFF775FFFFF7E2
:1016000073FFFFF771FFFFF76FFF10BD0408014084
:10161000BC8121420080214210B51248006820F0B0
:101620000F00104908600846006840F00300086099
:1016300000200D49086001200C49C1F8A0010A49A9
:1016400008600A2000F09CFC00200849C1F8A001B5
:101650000A2000F095FC0020034908600A2000F0F1
:101660008FFC10BD04080140B881214200002142D6
:1016700010B50F48006820F00F000D4908600846BB
:10168000006840F00300086000200A4908600A2052
:1016900000F076FC01200849C1F8B8010A2000F0EA
:1016A0006FFC0120034908600A2000F069FC10BDAE
:1016B00004080140A00121420080214238B50446BF
:1016C0006B46012200213120FFF750FF9DF80000FA
:1016D00000F00700082813D2DFE800F01204050824
:1016E00006090C0F00BF00BF012038BD00BF01205C
:1016F000009007E00220009004E00320009001E049
:101700000220F2E700BFFFF74BFF9DF80020002109
:10171000392000F067F800F077F8227801213320B3
:1017200000F060F800F070F862780221332000F0D9
:1017300059F800F069F8A2780321332000F052F83C
:1017400000F062F8FF220021392000F04BF800F091
:101750005BF8002000906B46012200213120FFF74A
:1017600005FF9DF8000000F00700072801D00320C6
:10177000BBE70020B9E7000070B504460025154816
:10178000006820F00F00134908600846006840F028
:101790000300086000BF19E004F0010018B1012047
:1017A0000D49086002E000200B4908600A2000F0A3
:1017B000E7FB0120094908600A2000F0E1FB002056
:1017C0000749C1F8B8016410681CC5B2082DE3DBF5
:1017D00070BD000004080140A0012142B8812142EF
:1017E0000080214270B506460C461546FFF714FFEF
:1017F0003046FFF7C1FF2046FFF7BEFF2846FFF740
:10180000BBFFFFF735FF70BD10B500241E48006810
:1018100020F00F001C4908600846006840F00800EE
:1018200008600020194908601FE0601CC4B2002055
:1018300017490860142000F0A3FB01201549C1F8E6
:10184000B801142000F09CFB10488038006860B19B
:101850000D48006820F00F000B490860084600683A
:1018600040F003000860002010BDFF2CDDDB0648BF
:10187000006820F00F00044908600846006840F046
:10188000030008600120EFE704080140A0012142A5
:10189000B8812142008021422DE9F04705460E46DD
:1018A000174698460024A146FFF77AFE00BF10E0D5
:1018B00018F804203319D9B245F00800FFF792FF59
:1018C000FFF7A2FF8146B9F1000F00D003E0601CD2
:1018D000C4B2BC42ECDB00BF4846BDE8F087000064
:1018E00002480068401C0149086070472800002039
:1018F00030B5164800684FF47A72B0FBF2F1B1F1DE
:10190000807F01D301201DE021F07F40401E4FF079
:10191000E022506150170F22002807DA13071D0E2E
:101920000B4B00F00F04241F1D5503E013071C0E82
:10193000084B1C5400BF00204FF0E02290610720AC
:101940001061002008B100BFFEE730BD1400002088
:1019500018ED00E000E400E010B51348006840F026
:1019600001001149086008464068104908400E49C6
:101970004860084600680E4908400B490860084660
:10198000006820F4802008600846406820F4FE00CB
:1019900048604FF41F008860FFF7FDFC4FF00060C7
:1019A0000449086010BD0000001002400000FFF86C
:1019B000FFFFF6FE08ED00E010B50121184800F029
:1019C0007EF858B30121164800F06AF815480088DF
:1019D000401C1449088014480078F8B9134800786E
:1019E00000281BDD12480088401C11490880084669
:1019F000008810490988884203D180200E49086078
:101A00000CE00B4800880D490988884206DB00205D
:101A10000749088080200849091F086010BD0000A0
:101A2000000400405C0000205500002079000020E8
:101A30008200002080000020140C01407A00002069
:101A40007FB505460C4601210220FFF7FBFBADF8F0
:101A50000850ADF804400020ADF80A00ADF80600CB
:101A600001A90E4800F046F8012211460B4800F08B
:101A700037F81D208DF8000000208DF801000320AC
:101A80008DF8020001208DF803006846FFF780FB07
:101A90000121024800F007F87FBD0000000400406B
:101AA000CA430282704721B1028842F001020280DB
:101AB00004E002884FF6FE731A400280704730B58A
:101AC0000246002000230024158A05EA01039589B7
:101AD00005EA010413B10CB1012000E0002030BD83
:101AE0001AB183890B43838102E083898B4383810D
:101AF00070470000002202881D4B98420ED01D4BFB
:101B000098420BD0B0F1804F08D01B4B984205D0C3
:101B10001A4B984202D01A4B984204D14FF68F7359
:101B20001A404B881A43174B984207D0164B9842DD
:101B300004D04FF6FF431A40CB881A4302808B88AB
:101B400083850B8803850A4B98420BD0094B98423A
:101B500008D00E4B984205D00D4B984202D00D4B49
:101B6000984201D10B7A03860123838270470000DB
:101B7000002C0140003401400004004000080040F7
:101B8000000C0040001000400014004000400140E4
:101B9000004401400048014070B50546AA200749AD
:101BA0000870002405E00549085D00F009F8601C94
:101BB000C4B2AC42F7DB00F013F870BD9A0000200D
:101BC00010B5044600BF8021044800F0ADF800289D
:101BD000F9D02146014800F074F910BD00380140E9
:101BE00010B5CC20FFF7ECFF3320FFF7E9FFC3204F
:101BF000FFF7E6FF3C20FFF7E3FF10BD10B540F212
:101C000025513B4800F09DF8002870D0384800F07E
:101C100053F9C4B2374800780B2863D2DFE800F0EC
:101C2000625E58524C3D352D25120600AA2C05D176
:101C300030480078401E2F49087002E00A202D49E4
:101C4000087053E0722C05D0732C07D1FF202A496D
:101C5000087003E000202849087000BF00BF254835
:101C60000078401E2349087040E024480470214851
:101C70000078401E1F49087038E0214804701D4854
:101C80000078401E1B49087030E01E480470194857
:101C90000078401E1749087028E01B48047015485A
:101CA0000078401E134908701348007817490870DF
:101CB00000201149087019E00E480078401E0D49B7
:101CC000087013E00B480078401E0A4908700DE0C8
:101CD00008480078401E0749087007E00A200549B7
:101CE000087003E00A200349087000BF00BF10BD60
:101CF0000038014034000020360000204A00002057
:101D00004B0000204C0000204D000020450000202A
:101D100021B1828942F40052828104E082894DF629
:101D2000FF731A408281704702460020B1F5007FA0
:101D300000D100BF13880B400BB1012000E0002050
:101D4000704770B50246002400230025002040F6AD
:101D50006A16B14200D100BFC1F3421501F01F0362
:101D6000012606FA03F3012D02D19689334006E0DD
:101D7000022D02D1168A334001E0968A33400C12BC
:101D8000012606FA04F41688344013B10CB1012080
:101D900000E0002070BDF0B50346002400260025B9
:101DA000002040F66A17B94200D100BF1846C1F3BF
:101DB000421401F01F06012707FA06F5012C01D194
:101DC0000C3004E0022C01D1103000E014301AB1C4
:101DD00007682F43076002E00768AF430760F0BD64
:101DE0002DE9F04786B005460E460024A24600BF06
:101DF000A1460027B08900B100BF2F462C8A4CF6BF
:101E0000FF700440F08804432C82AC894EF6F31036
:101E10000440B08831890843718908430443AC8188
:101E2000AC8A4FF6FF400440B0890443AC8201A85D
:101E3000FFF746FA1F48874202D1DDF810A001E003
:101E4000DDF80CA0A88900F4004040B10AEBCA00FC
:101E500000EB0A1031684900B0FBF1F807E00AEB2B
:101E6000CA0000EB0A1031688900B0FBF1F8642069
:101E7000B8FBF0F004012009642101FB1089A88956
:101E800000F4004040B1322000EBC900B0FBF1F09B
:101E900000F00700044308E0322000EB0910642141
:101EA000B0FBF1F000F00F0004432C8106B0BDE858
:101EB000F08700000038014001468888C0F3080020
:101EC0007047C1F308028280704700001FB50020F0
:101ED000ADF80400ADF80600ADF80800ADF80C0050
:101EE0000C20ADF80A004FF4E130009069460A4832
:101EF000FFF776FF012240F225510748FFF74BFF1D
:101F0000002240F227710448FFF745FF01210248F3
:101F1000FFF7FEFE1FBD0000003801404FF40040F7
:101F2000044908600A200449087000200349086039
:101F300070470000100801403400002028000020F5
:101F400000BFFEE710B54FF400400549086050207F
:101F500000F008F84FF400400149091F086010BD67
:101F600014080140054A116800BF044A1268521A59
:101F7000824200D300E0F8E700BF7047280000204D
:101F800000BF002101E04A1CD1B20E29FBDB421E3A
:101F90001000F6D1704770B504462046FFF78EFB5F
:101FA0000546284670BD000070B505460C46062D56
:101FB00050D12078022813D16078052810D1A0785C
:101FC00008280DD1E07803280AD12079062807D106
:101FD0006079092804D1032025490870002070BDCC
:101FE0002078012813D16078042810D1A078072820
:101FF0000DD1E07802280AD12079052807D160792F
:10200000082804D10A201A4908700020E7E7207840
:10201000012813D16078042810D1A07807280DD1A9
:10202000E07803280AD12079062807D160790928A9
:1020300004D10B200E4908700020D0E7002020704A
:102040006070A070E070207160710025284600F07B
:10205000DDF80AE0002020706070A070E070207150
:1020600060710025284600F0D1F80120B7E7000094
:102070002C00002010B5024610480088104C24881F
:10208000001B0A2490FBF4F083B200210DE00C4801
:10209000008803FB0100904201DB084610BD481C8C
:1020A000C1B20B2901DB0A20F8E70A29EFDD0B2971
:1020B00001DB0A20F2E70846F0E700007600002086
:1020C0007400002000B585B07820692105220B4BF3
:1020D0001B88CDE90132CDE90310022008490090A8
:1020E0000978C1EBC10202EB01111231C8B2002321
:1020F0001A460121FEF7EAFB05B000BD7A00002078
:102100002D00002000B585B0D820692105220B4B99
:102110001B88CDE90132CDE9031002200849009067
:102120000978C1EBC10202EB01111231C8B20023E0
:102130001A460121FEF7CAFB05B000BD7C00002055
:102140002D00002000B585B040F23910692105222C
:102150000B4B1B88CDE90132CDE903100220094960
:1021600000900978C1EBC10202EB01111231C8B233
:1021700000231A460121FEF7A9FB05B000BD0000AF
:102180007E0000202D00002000B585B04FF4867041
:102190006E2104220B4B1B88CDE90132CDE90310DF
:1021A0000220094900900978C1EBC10202EB01113C
:1021B0001131C8B200231A460121FEF787FB05B092
:1021C00000BD0000760000202D00002000B585B085
:1021D00086206E2104220B4B1B88CDE90132CDE90C
:1021E00003100220084900900978C1EBC10202EBFC
:1021F00001111131C8B200231A460121FEF766FB16
:1022000005B000BD740000202D000020FEB506467C
:10221000B4243C25342029216122CDE900210290FB
:102220008D490978C1EBC10202EB01110F31C8B22F
:10223000E92334222921FEF7E3F9072E0FD2DFE844
:1022400006F00E040F274C7EBD0084A0032301225C
:102250000021CDE9004502900846FEF715FAF9E0A5
:102260007EA0032301220021CDE90045029008460B
:10227000FEF70AFA79A1A4F1140080B20323012227
:10228000CDE90151009000210846FEF7FDF9E1E09B
:1022900072A0032301220021CDE9004502900846E7
:1022A000FEF7F2F96DA1A4F1140080B2032301221C
:1022B000CDE90151009000210846FEF7E5F967A13C
:1022C000A4F1280080B203230122CDE9015100903E
:1022D00000210846FEF7D8F9BCE060A003230122E4
:1022E0000021CDE9004502900846FEF7CDF95BA13B
:1022F000A4F1140080B203230122CDE90151009022
:1023000000210846FEF7C0F954A1A4F1280080B2CC
:1023100003230122CDE90151009000210846FEF778
:10232000B3F94EA1A4F13C0080B203230122CDE910
:102330000151009000210846FEF7A6F98AE047A067
:10234000032301220021CDE9004502900846FEF753
:102350009BF942A1A4F1140080B203230122CDE92C
:102360000151009000210846FEF78EF93BA1A4F12F
:10237000280080B203230122CDE901510090002101
:102380000846FEF781F935A1A4F13C0080B2032391
:102390000122CDE90151009000210846FEF774F9B1
:1023A0002EA1A4F1500080B203230122CDE90151F6
:1023B000009000210846FEF767F94BE027A00323B1
:1023C00001220021CDE9004502900846FEF75CF9A4
:1023D00022A1A4F1140080B203230122CDE901510E
:1023E000009000210846FEF74FF91CA1A4F1280037
:1023F00080B203230122CDE901510090002108465B
:10240000FEF742F915A1A4F13C0080B2032301229A
:10241000CDE90151009000210846FEF735F90FA1E2
:10242000A4F1500080B203230122CDE901510090B4
:1024300000210846FEF728F908A1A4F1640080B243
:1024400003230122CDE90151009000210846FEF747
:102450001BF900BF00BFFEBD2D0000202A000000B8
:1024600010B586B004467320B92103220B4B1B889C
:10247000CDE90132CDE90310022009490090097825
:10248000C1EBC10202EB0111891CC8B2FF231A463D
:102490000121FEF71BFA06B010BD00005E0000200F
:1024A0002D0000200EB519480078B8B940F29F10F1
:1024B000CB2140F2D112CDE90021029014490978D4
:1024C000C1EBC10202EB01111331C8B240F20F138C
:1024D00040F29F12CB21FEF793F816E040F29F10D6
:1024E000CB2140F2D112CDE90021029008490978B0
:1024F000C1EBC10202EB0111891CC8B240F20F13FB
:1025000040F29F12CB21FEF77BF80EBD5500002054
:102510002D00002010B586B0044646206E2104220E
:10252000CDE90142CDE90310032008490090097864
:10253000C1EBC10202EB01111031C8B200231A46EF
:102540000121FEF7C3F906B010BD00002D000020E8
:102550003EB53D244FF49975694800780B2819D28F
:10256000DFE800F006192A3C4F60728596A8BB0090
:102570004FF4E57063498DE831000978C1EBC10281
:1025800002EB0111891CC8B2D5234FF499723D2189
:10259000FEF736F8B2E098205A498DE83100097804
:1025A000C1EBC10202EB01110B31C8B2982300222A
:1025B0001146FEF725F8A1E04FF4997051498DE8D6
:1025C00031000978C1EBC10202EB01110B31C8B235
:1025D00098239A220021FEF713F88FE04FF4E6705B
:1025E00048498DE831000978C1EBC10202EB0111C5
:1025F0000B31C8B298234FF49A720021FEF700F80D
:102600007CE098203F498DE831000978C1EBC10298
:1026100002EB01110C31C8B2982300221146FDF7DC
:10262000EFFF6BE04FF4997036498DE8310009787F
:10263000C1EBC10202EB01110C31C8B298239A22FE
:102640000021FDF7DDFF59E04FF4E6702D498DE8DC
:1026500031000978C1EBC10202EB01110C31C8B2A3
:1026600098234FF49A720021FDF7CAFF46E09820A4
:1026700024498DE831000978C1EBC10202EB011158
:102680000D31C8B2982300221146FDF7B9FF35E09D
:102690004FF499701B498DE831000978C1EBC102F4
:1026A00002EB01110D31C8B298239A220021FDF7E7
:1026B000A7FF23E04FF4E67012498DE83100097856
:1026C000C1EBC10202EB01110D31C8B298234FF4E6
:1026D0009A720021FDF794FF10E0982009498DE8D7
:1026E00031000978C1EBC10202EB01110E31C8B211
:1026F000982300221146FDF783FF00BF00BF3EBDB7
:10270000790000202D0000203EB53D249525694824
:1027100000780B2818D2DFE800F00618293B4E5F3E
:10272000718495A7BA0040F22D1063498DE83100FD
:102730000978C1EBC10202EB0111891CC8B2D52393
:1027400095223D21FDF75CFFB2E098205A498DE8C3
:1027500031000978C1EBC10202EB0111C91DC8B2F9
:10276000982300221146FDF74BFFA1E04FF499702A
:1027700051498DE831000978C1EBC10202EB01112A
:10278000C91DC8B298239A220021FDF739FF8FE0B6
:102790004FF4E67048498DE831000978C1EBC10279
:1027A00002EB0111C91DC8B298234FF49A7200219F
:1027B000FDF726FF7CE098203F498DE8310009783D
:1027C000C1EBC10202EB01110831C8B2982300220B
:1027D0001146FDF715FF6BE04FF4997036498DE80F
:1027E00031000978C1EBC10202EB01110831C8B216
:1027F00098239A220021FDF703FF59E04FF4E67079
:102800002D498DE831000978C1EBC10202EB0111BD
:102810000831C8B298234FF49A720021FDF7F0FEF8
:1028200046E0982024498DE831000978C1EBC102C7
:1028300002EB01110931C8B2982300221146FDF7BD
:10284000DFFE35E04FF499701B498DE831000978BF
:10285000C1EBC10202EB01110931C8B298239A22DF
:102860000021FDF7CDFE23E04FF4E67012498DE81C
:1028700031000978C1EBC10202EB01110931C8B284
:1028800098234FF49A720021FDF7BAFE10E09820C9
:1028900009498DE831000978C1EBC10202EB011151
:1028A0000A31C8B2982300221146FDF7A9FE00BFE5
:1028B00000BF3EBD780000202D00002001B58AB089
:1028C00023200990732008900A98002876D1DDE92A
:1028D000080100F1180292B2CDE90021029001F145
:1028E0003C0080B20690FD480078C0EBC00101EBCF
:1028F0000010801CC0B20590069BDDE90821FDF7A1
:102900007FFEF74800780A2190FBF1F0C0B20690F4
:10291000DDE908100223CDE90001FF210846069AEF
:10292000FDF7FAFEEE4800780A2190FBF1F201FB78
:102930001200C0B20690DDE908100C3080B202230C
:10294000CDE90001FF210846069AFDF7E5FEE5A264
:10295000DDE90810183080B202238DE8070001225B
:10296000FF210846FDF790FEDF4800780A2190FB22
:10297000F1F0C0B20690DDE90810243080B20223E5
:10298000CDE90001FF210846069AFDF7C5FED648AD
:1029900000780A2190FBF1F201FB1200C0B2069010
:1029A000DDE90810303080B20223CDE90001FF21BB
:1029B0000846069AFDF7B0FE00E1FFE7CB48007835
:1029C0000A2190FBF1F0C64909780A2291FBF2F145
:1029D00088422AD0DDE9080100F1180292B2CDE95F
:1029E0000021029001F10C0080B20690BB480178F2
:1029F000C1EBC10000EB0110801CC0B20590069B2A
:102A0000DDE90821FDF7FCFDB54800780A2190FBBF
:102A1000F1F0C0B20690DDE908100223CDE9000113
:102A2000FF210846069AFDF777FEB04800780A2194
:102A300090FBF1F201FB1200A94909780A2291FBEF
:102A4000F2F302FB1311884234D009990C3189B298
:102A5000089800F1180292B2CDE90021029009987D
:102A6000183080B2069009980C3080B205909B48CF
:102A70000078C0EBC00101EB0010801CC0B20490D4
:102A8000DDE90513089AFDF7BBFD954800780A219A
:102A900090FBF1F201FB1200C0B20690DDE90810D4
:102AA0000C3080B20223CDE90001FF210846069ACE
:102AB000FDF732FE8E4800780A2190FBF1F08A493A
:102AC00009780A2291FBF2F1884232D00999243127
:102AD00089B2089800F1180292B2CDE90021029063
:102AE0000998303080B206900998243080B2059061
:102AF0007A480078C0EBC00101EB0010801CC0B226
:102B00000490DDE90513089AFDF77AFD7648007810
:102B10000A2190FBF1F0C0B20690DDE908102430E4
:102B200080B20223CDE90001FF210846069AFDF795
:102B3000F3FD6F4800780A2190FBF1F201FB1200CF
:102B4000694909780A2291FBF2F302FB13118842CA
:102B500034D00999303189B2089800F1180292B244
:102B6000CDE90021029009983C3080B20690099886
:102B7000303080B2059059480178C1EBC10000EBBC
:102B80000110801CC0B20490DDE90513089AFDF71E
:102B900037FD554800780A2190FBF1F201FB120045
:102BA000C0B20690DDE90810303080B20223CDE9D2
:102BB0000001FF210846069AFDF7AEFD484800785F
:102BC0004A490870484800784949087049480078DF
:102BD0004FF461614843424909783C2202FB0100FD
:102BE0004149097808440790079878B10798401E32
:102BF000C0EB001040F2AF41B0FBF1F0801C079039
:102C00000798102804D91020079001E001200790B0
:102C10000798112820D2DFE800F01F0920364B6FFB
:102C2000869CB1C6DDF9F7F6F5F4F3000720242100
:102C30004FF4DB72CDE90021029028480178C1EB06
:102C4000C10000EB0110801DC0B2C7234FF4A57274
:102C500000210690FDF7D4FC59E1072024214FF410
:102C6000A472CDE9002102901C480078C0EBC0019D
:102C700001EB0010801DC0B2C723DC2200210690AA
:102C8000FDF7BEFC43E107202421DA22CDE9002133
:102C9000029012480078C0EBC00101EB0010801DCB
:102CA000C0B2C7236E2200210690FDF7A9FC2EE1D9
:102CB000072124206C22CDE90020029107480078EA
:102CC000C0EBC00101EB0010801DC0B2C723002281
:102CD00011460690FDF794FC19E100002D0000203C
:102CE000520000203A000000530000208400002021
:102CF0008500002051000020072024214FF4DB72C2
:102D0000CDE90021029083480078C0EBC00101EBBF
:102D10000010401DC0B2C7234FF4A57200210690D9
:102D2000FDF76EFCF3E0072024214FF4A472CDE9F7
:102D30000021029077480078C0EBC00101EB001041
:102D4000401DC0B2C723DC2200210690FDF758FCCD
:102D5000DDE007202421DA22CDE9002102906D4830
:102D60000078C0EBC00101EB0010401DC0B2C723CA
:102D70006E2200210690FDF743FCC8E007202421C5
:102D80006C22CDE90021029062480078C0EBC001BE
:102D900001EB0010401DC0B2C7230022114606906F
:102DA000FDF72EFCB3E0072024214FF4DB72CDE9C0
:102DB0000021029057480078C0EBC00101EB0010E1
:102DC000001DC0B2C7234FF4A57200210690FDF785
:102DD00017FC9CE0072024214FF4A472CDE90021C8
:102DE00002904C480078C0EBC00101EB0010001DC0
:102DF000C0B2C723DC2200210690FDF701FC86E06B
:102E000070E05AE043E02BE015E0FFE707202421C3
:102E1000DA22CDE9002102903E480078C0EBC001E3
:102E200001EB0010001DC0B2C7236E2200210690E6
:102E3000FDF7E6FB6BE0072024216C22CDE90021A1
:102E4000029034480078C0EBC00101EB0010001D77
:102E5000C0B2C723002211460690FDF7D1FB56E011
:102E6000072024214FF4DB72CDE90021029029488C
:102E70000078C0EBC00101EB0010C01CC0B2C7233A
:102E80004FF4A57200210690FDF7BAFB3FE0072042
:102E900024214FF4A472CDE9002102901D4800784E
:102EA000C0EBC00101EB0010C01CC0B2C723DC2284
:102EB00000210690FDF7A4FB29E007202421DA2257
:102EC000CDE90021029013480078C0EBC00101EB6E
:102ED0000010C01CC0B2C7236E2200210690FDF76F
:102EE0008FFB14E0072124206C22CDE90020029101
:102EF00008480078C0EBC00101EB0010C01CC0B254
:102F0000C723002211460690FDF77AFB00BF00BFE1
:102F10000BB000BD2D00002010B586B00446F22095
:102F20006E210422CDE90142CDE9031003200849B6
:102F300000900978C1EBC10202EB01111031C8B257
:102F400000231A460121FDF7C1FC06B010BD0000A8
:102F50002D00002026E00120FFF704F81248007839
:102F60000D281DD2DFE800F0071C100D1C131C1CDF
:102F70001C1C0A16190000F093FB12E000F0B6F9D1
:102F80000FE000F09DFF0CE000F044FA09E000F0D3
:102F9000F7FB06E000F0BAF803E000F061FF00E0A4
:102FA00000BF00BFD7E700002C000020FEF7D4FCD4
:102FB000FEF778F9FEF7C3F8FDF760FDFDF780FA3C
:102FC000FEF75EFAFDF7D4FA10203A490860C00215
:102FD0003949086040203749091D08608020086091
:102FE000FEF786FC41F61F410920FEF729FDFEF79A
:102FF0006DFFFEF793FF4FF47A70FEF7B3FF0020EA
:10300000FDF72CFD01F048FA01F036FA2B48008854
:103010002B490988884204DC29480088B0F5805F84
:103020000ADB5820254908804FF4FA6024490880BB
:1030300001F066FB01F04AFB01F0C4F901F0D2F99E
:1030400001F0E0F91F48008842F2107188420FDC5D
:103050001C4800881C490988884209DB1A480088F6
:103060001A490988884203DB184800880A2810DAC0
:103070004FF47A70134908804FF448701249088061
:103080000A201249088001F087FA01F09FFA01F046
:10309000B7FA00200E4908700E4908700E490870F2
:1030A0000E49087001F032FA01F034F901E000F045
:1030B00017F8FCE7100C01401008014074000020D4
:1030C000760000207A0000207C0000207E00002096
:1030D0007900002051000020520000205300002001
:1030E0004FF480710748FDF737FE18B900200649F4
:1030F000087002E00C200449087000BFFFF72AFFA7
:10310000FCE70000000C01402C00002010B56F49C6
:103110000978C1EBC10202EB01111231C8B2FDF70F
:103120009DFCFEF7CFFFFEF7EDFFFFF70BF800BFAA
:103130000120FEF717FF66480078002870D0FDF7E1
:1031400093F964490720FDF7A7FF0446082C68D2CD
:10315000DFE804F0A0041D364D687F985E480088C3
:103160005E49098888420EDDFEF7ECFE5A48008869
:10317000401E59490880FEF7A5FF01F00DFA0A200C
:10318000FEF7F0FE02E000205149087083E052484B
:10319000008842F2107188420EDAFEF7D3FE4E48E4
:1031A0000088401C4C490880FEF78CFF01F0F4F9C0
:1031B0000A20FEF7D7FE02E00020454908706AE0C9
:1031C000464800880A280EDDFEF7BCFE434800880A
:1031D000401E42490880FEF795FF01F0F7F90A20EA
:1031E000FEF7C0FE02E000203949087053E03B487A
:1031F00000883949098888420EDAFEF7A3FE37486D
:103200000088401C35490880FEF77CFF01F0DEF99C
:103210000A20FEF7A7FE02E000202D4908703AE0E0
:103220003AE037E02E4800880A280EDDFEF78AFED5
:103230002B480088401E2A490880FEF783FF01F0D2
:10324000DFF90A20FEF78EFE02E000202049087018
:1032500021E0234800882149098888420EDAFEF7D8
:1032600071FE1F480088401C1D490880FEF76AFF58
:1032700001F0C6F90A20FEF775FE02E000201449AD
:10328000087008E0FEF75EFE00201149087015493D
:10329000087019E000BF00BF4FF480711248FDF7BD
:1032A0005BFD01280FD16420FEF75CFE4FF48071B6
:1032B0000D48FDF751FD012805D1FEF743FE0C2016
:1032C0000849087000E033E700BF10BD2D00002062
:1032D00045000020944900087A0000207C0000206E
:1032E0007E0000202C000020000C014010B5424957
:1032F0000978C1EBC10202EB01111131C8B2FDF72F
:10330000ADFBFEF763FFFEF73FFF10203B4908606F
:1033100000BF0120FEF726FE3948007800284ED075
:10332000FDF7A2F837490320FDF7B6FE0446012C4D
:1033300004D0022C1BD0032C3FD132E0FEF702FE5A
:103340000A210120FDF72EFD2F490880084600883C
:103350002E490988884202DB00202B490880FEF7AD
:1033600035FF01F0CDF900202549087026E0FEF771
:10337000E9FD0A210120FDF715FD244908800846D2
:10338000008821490988884203DC4FF47A601F498C
:103390000880FEF7F9FE01F099F90020184908703D
:1033A0000CE0FEF7CFFD10201449091F0860002033
:1033B00013490870164908701BE000BF00BF4FF4A6
:1033C00080710E481438FDF7C7FC012810D1642025
:1033D000FEF7C8FD4FF4807108481438FDF7BCFCB7
:1033E000012805D1FEF7AEFD0C200949087000E068
:1033F0008FE700BF10BD00002D000020140C01401D
:10340000450000206049000874000020760000207C
:103410002C00002030B585B09A490978C1EBC10273
:1034200002EB01110F31C8B2FDF718FB00208DF837
:103430000C008DF80D008DF80E008DF80F008DF842
:1034400010008DF8110000248FA0002100910123AD
:103450000422CDE90110FF210846FDF715F900BF50
:103460000120FEF77FFD8A480078002872D0FCF723
:10347000FBFF88490E20FDF70FFE05460F2D6AD28F
:10348000DFE805F0E30818283848586A7A8A9AAACB
:10349000C1CBDB00FEF756FD062C04DA012003A9A0
:1034A0000855601CC4B22046FEF7B0FE00207849E3
:1034B0000870CBE0FEF746FD062C04DA022003A9D3
:1034C0000855601CC4B22046FEF7A0FE00207049DB
:1034D0000870BBE0FEF736FD062C04DA032003A9D2
:1034E0000855601CC4B22046FEF790FE00206849D3
:1034F0000870ABE0FEF726FD062C04DA042003A9D1
:103500000855601CC4B22046FEF780FE00206049CA
:1035100008709BE0FEF716FD062C04DA052003A9CF
:103520000855601CC4B22046FEF770FE00205849C2
:1035300008708BE0FEF706FD062C04DA062003A9CE
:103540000855601CC4B22046FEF760FE00205049BA
:1035500008707BE07BE078E0FEF7F4FC062C04DAF0
:10356000072003A90855601CC4B22046FEF74EFE92
:1035700000204749087069E0FEF7E4FC062C04DAF5
:10358000082003A90855601CC4B22046FEF73EFE81
:1035900000203F49087059E0FEF7D4FC062C04DAFD
:1035A000092003A90855601CC4B22046FEF72EFE70
:1035B00000203749087049E0FEF7C4FC062C04DA05
:1035C000002003A90855601CC4B22046FEF71EFE69
:1035D00000202F49087039E0FEF7B4FC00208DF878
:1035E0000C008DF80D008DF80E008DF80F008DF891
:1035F00010008DF8110000242046FEF707FE002081
:103600002349087022E0FEF79DFC00202049087045
:1036100003A92046FEF7C8FC31E0FEF793FC002C1E
:1036200007DD002003A90855601EC4B22046FEF73E
:10363000EDFD00201649087008E0FEF783FC00202D
:10364000134908701449087019E000BF00BF4FF417
:1036500080711248FDF780FB01280FD16420FEF72E
:1036600081FC4FF480710D48FDF776FB012805D1F0
:10367000FEF768FC0C200849087000E0F0E600BF87
:1036800005B030BD2D00002056322E320000000063
:1036900045000020F44700082C000020000C0140E9
:1036A00070B532490978C1EBC10202EB0111491C26
:1036B000C8B2FDF7D3F90026002508202C49086080
:1036C0002020091F086000BF0120FEF74BFC29489D
:1036D000007840B3FCF7C8FE27490220FDF7DCFC68
:1036E0000446012C02D0022C1BD108E0FEF72AFC74
:1036F00005202249087000201E49087034E0681C2B
:10370000C5B200260A2D08DDFEF71CFC02201B496D
:10371000087000201749087026E00020154908703D
:1037200000E000BF00BF701C86B2B6F5FA7F01DD75
:10373000002600254FF480710D481438FDF70CFB6E
:10374000012810D16420FEF70DFC4FF48071084869
:103750001438FDF701FB012805D1FEF7F3FB0C201F
:103760000649087000E0AFE700BF70BD2D000020E3
:10377000140C014045000020D04700082C00002018
:103780002DE9FE4F00BFFC490978C1EBC10202EBF5
:103790000111891CC8B2FDF761F90020F7490880C2
:1037A0000A210120FDF7FEFA04462046FEF762FCDE
:1037B000F3490870FEF7A8FF0A210220FDF7F2FA8C
:1037C0000446A146484600F0C3FEEE4890F800B01B
:1037D0000A20EC490870FEF7BBFE0020FFF76EF8E8
:1037E0000120E94908701020E84908608020091D7F
:1037F0000860402008603220FEF7B4FB00F086FE2F
:10380000E3480678012E69D100F084FD0546AB2D12
:1038100049D1E048FEF7BFFB05464DBB00F086FDF1
:1038200058B9D64804880120DB4908700020FEF70B
:1038300017FE0020D949087050E0D9A0002100915E
:1038400002230422CDE90110FF210846FCF71CFFEA
:1038500007E000F05BFE4FF4FA70FEF783FBFEF723
:1038600071FBCB4800780128F3D0FEF76BFBE5E253
:10387000CDA00021009102230422CDE90110FF21F7
:103880000846FCF701FF07E000F040FE4FF4FA7035
:10389000FEF768FBFEF756FBBD4800780128F3D021
:1038A000FEF750FBCAE2C2A00021009102230422CD
:1038B000CDE90110FF210846FCF7E6FE07E000F025
:1038C00025FE4FF4FA70FEF74DFBFEF73BFBB048C8
:1038D00000780128F3D0FEF735FBAFE20020FEF7B9
:1038E000BFFD4FF00008C24600BF0120FEF73AFBC3
:1038F000B148007800287DD0FCF7B6FDAF49042020
:10390000FDF7CAFB07463846012F06D0022822D011
:10391000032837D004286ED142E09A480078002866
:1039200015DDFEF70FFB97480078401E954908709B
:103930000846007818B980209449091D0860FEF7F0
:1039400007FEFEF7AFFD5020FEF70CFB02E0002063
:1039500099490870C0E08B4800780A280EDAFEF713
:10396000F1FA88480078401C86490870FEF7F0FD9F
:10397000FEF798FD5020FEF7F5FA02E000208E4990
:103980000870A9E000208C4908707F480078012861
:1039900005D1FEF7D7FA0020894908704EE29BE076
:1039A000FEF7D0FA7848007868B9012076490870A7
:1039B0001020764908608020091D086040200860BA
:1039C000FEF770FD83E07F480078002871D17E48C3
:1039D000007800286DD17D480078002869D16748BB
:1039E000008800284EDD65480088401E6349088035
:1039F000774801E071E06EE00088401E744908805D
:103A000000F018FEF8B900F095FEE0B90020FEF7CE
:103A100027FD00206B49087014206B4908700020B6
:103A20006A490870FEF74AFF00206A490880564933
:103A3000087010205549091D08604020091F0860C2
:103A4000FEF730FD43E001204F49087010204F4938
:103A500008608020091D086040200860FEF722FDF4
:103A6000FEF770FA4FF49670FEF77CFAFEF76AFAEA
:103A700001E000F04BFD464800780128F9D0FEF740
:103A800061FADBE101204049087010203F490860DD
:103A90008020091D086040200860FEF703FDFEF746
:103AA00051FA4FF49670FEF75DFAFEF74BFA0EE00E
:103AB000FFE7002047490880334908701020334948
:103AC000091D08604020091F0860FEF7EBFC00207C
:103AD0003949087000E000BF00BF08F101001FFA7B
:103AE00080F8B8F5FA6F0DDD4FF000080A210120CB
:103AF000FDF758F904462046FEF7BCFA2049087045
:103B0000FEF702FE20480078A8BB32480088B0F5D6
:103B10007A7F77DD00202F4908802A4800784FF40B
:103B200061614843284909783C2202FB010027498A
:103B30000978084484B2002C4EDD601E84B24FF434
:103B4000616094FBF0F01F4908704FF4616094FBD2
:103B5000F0F100FB11403C2190FBF1F01A49087094
:103B60003C2094FBF0F100FB114018490870012043
:103B7000FEF7A4FE46E047E02D0000205E00002096
:103B8000780000207900002055000020100C014032
:103B900086000020880000207000002068000020BF
:103BA000657272330000000065727232000000001E
:103BB0006572723100000000450000201C490008B9
:103BC0002C00002051000020520000205300002053
:103BD000600000205C00002001209A49087010203D
:103BE000994908608020091D086040200860FEF7A0
:103BF00059FCFEF7A7F94FF49670FEF7B3F9FEF7FC
:103C0000A1F900E000BF00BF00F080FC8F48007801
:103C1000864217D08D480678012E7DD100F07AFBC0
:103C20000546AB2D64D18A48FEF7B5F90546A5BB1C
:103C300000F07CFB38B987480488FEF783F9002040
:103C4000FEF70EFCA7E001207E49087010207E4997
:103C500008608020091D086040200860AFF2C000A5
:103C60000021009102230422CDE90110FF21084622
:103C7000FCF70AFDFEF766F94FF49670FEF772F94D
:103C8000FEF760F901E000F041FC7048007801287F
:103C9000F9D00026FEF756F9D0E0FFE70120694988
:103CA00008701020684908608020091D08604020C5
:103CB0000860AFF20C100021009102230422CDE92C
:103CC0000110FF210846FCF7DFFCFEF73BF94FF43B
:103CD0009670FEF747F9FEF735F901E000F016FCA3
:103CE0005A4800780128F9D00026FEF72BF9A5E004
:103CF0000120544908701020534908608020091D94
:103D0000086040200860AFF25810002100910223A3
:103D10000422CDE9011000E016E0FF210846FCF77F
:103D2000B3FCFEF70FF94FF49670FEF71BF9FEF7A0
:103D300009F901E000F0EAFB444800780128F9D0D5
:103D40000026FEF7FFF879E001203E4908701020B8
:103D50003D4908608020091D086040200860FEF78A
:103D6000F1F800201422CDE900203B4902900978A7
:103D7000C1EBC10202EB0111891CC8B2642300220D
:103D80001146FCF73DFC0026002032490880FEF772
:103D900067FBFEF787FB4FF400712B481038FCF7E8
:103DA000DBFF30BB2C490978C1EBC10202EB0111EA
:103DB0001431C8B2FCF752FE0120224908701020CD
:103DC000214908608020091D08604020086005E046
:103DD000FEF7B8F84FF4FA70FEF7C4F84FF400712C
:103DE00019481038FCF7B8FF0028F1D0FEF7AAF800
:103DF00024E04FF4807114481038FCF7ADFF01281F
:103E00001BD16420FEF7AEF84FF480710E481038D5
:103E1000FCF7A2FF012810D1FEF794F80120094910
:103E200008701020084908608020091D08604020A3
:103E300008600C200949087000E056E500BFBDE8A5
:103E4000FE8F000055000020100C0140860000206D
:103E5000880000205E0000202D0000202C000020A3
:103E600010B514490978C1EBC10202EB0111C8B2C7
:103E7000FCF7F4FD0820104908602020091D0860A7
:103E800000BF4FF480710C481038FCF765FF68B92B
:103E90006420FEF767F84FF4807107481038FCF78C
:103EA0005BFF18B900200549087000E0E9E700BF92
:103EB00010BD00002D000020100C01402C0000203F
:103EC0002DE9F04786B04FF0000900255A24F24949
:103ED0000978C1EBC10202EB01111031C8B2FCF745
:103EE000BDFD2046FFF718F84FF0010800BF012084
:103EF000FEF738F8E948007800284CD0FCF7B4FA0F
:103F0000E7490420FDF7C8F806463046012E06D0E2
:103F1000022816D0032825D004283AD131E0B4F580
:103F2000FA7F0ADAFEF70EF8601C84B22046FEF72C
:103F3000F3FF3220FEF716F802E00020D7490870A0
:103F400028E0012C0ADDFDF7FDFF601E84B220464B
:103F5000FEF7E2FF3220FEF705F802E00020CF492D
:103F6000087017E0B8F1010F07D1FDF7EBFF4FF034
:103F700000084FF49670FDF7F5FF0020C749087060
:103F800008E0FDF7DFFF0020C4490870C54908704C
:103F90007EE100BF00BF00F0B9FAC3480078814558
:103FA00019D0C14890F80090B9F1010F77D100F015
:103FB000B1F90746AB2F74D1BC48FDF7ECFF0746BB
:103FC000D7BBFDF7BFFF012500F0B0F920B9B84815
:103FD0000088FEF79FFA1AE13A2049217022CDE9C4
:103FE00000210290AC490978C1EBC10202EB01113A
:103FF0001031C8B2C9233A224921FCF701FB002045
:1040000001220192CDE90220A3490092049009788F
:10401000C1EBC10202EB01111031C8B2FF231A46F5
:104020000121FCF753FCFDF78DFF4FF49670FDF76F
:1040300099FFFDF787FFEAE0FFE73A204921702268
:10404000CDE90021029094490978C1EBC10202EB4D
:1040500001111031C8B2C9233A224921FCF7D0FA24
:10406000002001220323CDE902208B49CDE9002362
:1040700004900978C1EBC10202EB01111031C8B202
:10408000FF231A460121FCF721FC0025FDF75AFF0A
:104090004FF49670FDF766FFFDF754FFB7E074E04C
:1040A000FFE78448FDF777FF0746DFBBFDF74AFFD0
:1040B000012500F03BF920B97D480088FEF72AFA77
:1040C000A5E03A2049217022CDE9002102907249F1
:1040D0000978C1EBC10202EB01111031C8B2C9234A
:1040E0003A224921FCF78CFA002001220223CDE973
:1040F00002206949CDE9002304900978C1EBC1028F
:1041000002EB01111031C8B2FF231A460121FCF75E
:10411000DDFBFDF717FF4FF49670FDF723FFFDF76A
:1041200011FF74E0FFE73A2049217022CDE9002118
:10413000029059490978C1EBC10202EB011110311B
:10414000C8B2C9233A224921FCF75AFA00200122B9
:104150000423CDE902205049CDE9002304900978D9
:10416000C1EBC10202EB01111031C8B2FF231A46A4
:104170000121FCF7ABFB0025FDF7E4FE4FF4967040
:10418000FDF7F0FEFDF7DEFE41E03A204921702206
:10419000CDE90021029040490978C1EBC10202EB50
:1041A00001111031C8B2C9233A224921FCF728FA7B
:1041B00000200122CDE901020390374900920490CA
:1041C0000978C1EBC10202EB01111031C8B2FF2323
:1041D0001A460121FCF77AFB00201422CDE90020C9
:1041E0002D4902900978C1EBC10202EB0111103197
:1041F000C8B2142300221146FCF702FA0025FDF78D
:10420000A1FE4FF49670FDF7ADFEFDF79BFE0AF19F
:10421000010000F0FF0A012D20D1B8F1000F1FD1DD
:104220002348048024480480A8460025A9461F4846
:1042300000F046F80A20FDF795FEAB2000F0A4F947
:104240000A20FDF78FFE00F0F5F90A20FDF78AFE3F
:1042500000F070FA0A20FDF785FE01E04FF001083A
:104260004FF480711548FCF777FD01280FD16420C9
:10427000FDF778FE4FF480711048FCF76DFD0128C2
:1042800005D1FDF75FFE0C200649087000E02EE620
:1042900000BF06B0BDE8F0872D00002045000020DB
:1042A000D84800082C00002086000020880000204C
:1042B0005E0000208B00002060000020000C014008
:1042C00038B50446FF208DF8000020788DF80100F5
:1042D00060788DF80200A0788DF803006B4601220B
:1042E00000213120FDF7D8FA0DF10103012211461A
:1042F0003120FDF7D1FA0DF1020301220221312014
:10430000FDF7CAFA0DF10303012203213120FDF765
:10431000C3FA38BD08B5002000906B4601220A217F
:104320003020FDF723F99DF8000008BD10B500F01E
:1043300079F878BB00F0C0F818BB20480088204905
:104340000988884201D1002010BD1C4800881C4902
:10435000098888420ADD1A4800881849088000F058
:1043600069F908B90020EFE70120EDE7134800885C
:104370001349088000F0DEF908B90020E4E70120C5
:10438000E2E70E4800880E49088000F0D3F910B922
:104390000020D9E701E00120D6E700F08DF850B900
:1043A000074800880549088000F044F908B9002052
:1043B000CAE70120C8E70120C6E700005E00002030
:1043C0006000002070B50A20FCF77EF804460B2040
:1043D000FCF77AF8054605EB04200149088070BD1A
:1043E0007A00002070B50C20FCF76EF804460D2012
:1043F000FCF76AF8054605EB04200149088070BD0A
:104400007C00002070B50E20FCF75EF804460F20FB
:10441000FCF75AF8054605EB04200149088070BDF9
:104420007E00002008B56B46032250213020FDF7A6
:104430009DF89DF80000D0B99DF801000D49088055
:10444000084600884FF6FF7101EA002009490880FC
:104450009DF802000988084306490880084600883C
:10446000B0F5FA7F01DA002008BD0120FCE7012049
:10447000FAE700005E00002070B51020FCF724F879
:1044800004461120FCF720F8054605EB04200149FD
:10449000088070BD7600002070B51220FCF714F87B
:1044A00004461320FCF710F8054605EB04200149EB
:1044B000088070BD7400002008B56B46032260219F
:1044C0003020FDF753F89DF80000D0B99DF80100A9
:1044D0000D490880084600884FF6FF7101EA002068
:1044E000094908809DF802000988084306490880A8
:1044F00008460088B0F5FA7F01DA002008BD0120E7
:10450000FCE70120FAE700006000002010B54FF43E
:1045100000510C48FCF720FC68B90B4800783228A1
:1045200005DA09480078401C0749087008E00120B6
:104530000649087004E00020034908700349087028
:1045400010BD0000000C01408E00002086000020FD
:1045500010B50146162301FB03F2D31702EB5353A8
:10456000C3F3CF20022801DA022002E0162800DD82
:104570001620024600EBD2735B105B1E014C2370C9
:1045800010BD00007900002001B56B4601220A2110
:104590003020FDF781F908BD10B50B480488E017FD
:1045A00004EB1060C0F307210A20FBF7B9FF0648AF
:1045B0000488E01704EB10600012A4EB0020C1B2E5
:1045C0000B20FBF7ADFF10BD7A00002010B50B48A3
:1045D0000488E01704EB1060C0F307210C20FBF700
:1045E0009FFF06480488E01704EB10600012A4EB5C
:1045F0000020C1B20D20FBF793FF10BD7C0000200E
:1046000010B50B480488E01704EB1060C0F30721D5
:104610000E20FBF785FF06480488E01704EB1060C6
:104620000012A4EB0020C1B20F20FBF779FF10BDF0
:104630007E00002038B5244800788DF8020022481A
:10464000008800128DF80100FF208DF800006B46F5
:10465000012250213020FDF71FF90DF10103012245
:1046600051213020FDF718F90DF1020301225221EA
:104670003020FDF711F900208DF800006B46012273
:1046800050213020FDF708F90A20FDF76BFC6B463E
:10469000032250213020FCF769FF9DF8000080B90B
:1046A0009DF801404FF6FF7000EA04249DF80200D7
:1046B000044305480088844201D1002038BD012010
:1046C000FCE70120FAE700005E00002010B50B486F
:1046D0000488E01704EB1060C0F307211020FBF7FB
:1046E0001FFF06480488E01704EB10600012A4EBDB
:1046F0000020C1B21120FBF713FF10BD760000208F
:1047000010B50B480488E01704EB1060C0F30721D4
:104710001220FBF705FF06480488E01704EB106041
:104720000012A4EB0020C1B21320FBF7F9FE10BD6C
:104730007400002038B5244800788DF80200224823
:10474000008800128DF80100FF208DF800006B46F4
:10475000012260213020FDF79FF80DF101030122B5
:1047600061213020FDF798F80DF10203012262214A
:104770003020FDF791F800208DF800006B460122F3
:1047800060213020FDF788F80A20FDF7EBFB6B462F
:10479000032260213020FCF7E9FE9DF8000080B97B
:1047A0009DF801404FF6FF7000EA04249DF80200D6
:1047B000044305480088844201D1002038BD01200F
:1047C000FCE70120FAE70000600000200200000082
:1047D00034000000DC0000001D0100004F0100005B
:1047E000000000000F01000064000000C80000008D
:1047F0000E000000290000005A00000076000000B2
:10480000A900000071000000A30000007600000075
:10481000A9000000B8000000EA00000076000000D7
:10482000A9000000290000005A000000BA000000A2
:10483000EF00000071000000A3000000BA000000BB
:10484000EF000000B8000000EA000000BA0000001D
:10485000EF000000290000005A000000FD000000E9
:104860003101000071000000A3000000FD00000005
:1048700031010000B8000000EA000000FD00000067
:104880003101000071000000A3000000430100009E
:104890007501000029000000E9000000340000005C
:1048A00061000000B8000000EA00000043010000C1
:1048B00075010000290000005A00000043010000BB
:1048C00075010000000000005A000000990100007E
:1048D000DF0100000400000049000000C9000000E2
:1048E00093000000DF00000049000000C900000044
:1048F000E000000072010000C00000000F01000095
:1049000096010000DF0100000000000054000000DC
:1049100096010000DF01000004000000DB00000041
:104920008F0100005E010000950100000000000002
:104930003B0000005E010000950100000000000047
:10494000560000009C010000DF010000C1000000D3
:104950000F0100009C010000DF01000003000000C7
:1049600044000000CC00000056000000B70000002A
:1049700044000000CC000000E00000003B0100000B
:10498000000000005400000096010000DF0100005C
:10499000070000001A000000440000006B00000047
:1049A0009D000000CF000000F30000006B0000003D
:1049B0009D0000001A00000044000000CA00000032
:1049C000FC000000CF000000F3000000CA0000005F
:1049D000FC0000001A000000440000002C01000050
:1049E00060010000CF000000F30000002C01000077
:1049F000600100000000000054000000960100006B
:104A0000DF010000244A00080000002090000000A0
:104A10006C010008B44A00089000002088060000DD
:104A200088010008000000000102030401020304E1
:104A3000060708090204060800A24A040000000054
:104A4000000000000102030406070809000000003E
:104A50000000000000000000000000000000000056
:104A60000000000000000000000000000000000046
:104A70000000000000000000000000000000000036
:104A80000000000000000000000000000000000026
:104A90000000000000000000000000000000000016
:104AA000000000000000000000000000ABCDEFFFA0
:044AB000FFFF000004
:0400000508000131BD
:00000001FF
